:020000040800F2
:100000000050002029560008995100089D51000811
:10001000A1510008A5510008A951000800000000E6
:10002000000000000000000000000000AD510008CA
:10003000B151000800000000B5510008B951000896
:100040007156000871560008715600087156000874
:1000500071560008C9510008CD51000871560008BA
:100060007156000871560008715600087156000854
:100070007156000871560008715600087156000844
:100080007156000871560008715600087156000834
:10009000DD510008715600087156000871560008BD
:1000A0007156000871560008715600087156000814
:1000B0007156000871560008715600087156000804
:1000C00071560008715600087156000871560008F4
:1000D00071560008E951000871560008F5510008F2
:1000E00071560008715600087156000800000000A3
:1000F0000000000000000000000000000000000000
:0C01000000000000000000005FF808F1A3
:1001100010B5054C237833B9044B13B10448AFF341
:1001200000800123237010BD380300200000000070
:10013000A077000808B5034B1BB103490348AFF390
:10014000008008BD000000003C030020A0770008EC
:1001500081F0004102E000BF83F0004330B54FEA78
:1001600041044FEA430594EA050F08BF90EA020FE5
:100170001FBF54EA000C55EA020C7FEA645C7FEA78
:10018000655C00F0E2804FEA5454D4EB5555B8BF9B
:100190006D420CDD2C4480EA020281EA030382EA0C
:1001A000000083EA010180EA020281EA0303362D9E
:1001B00088BF30BD11F0004F4FEA01314FF4801C71
:1001C0004CEA113102D0404261EB410113F0004F83
:1001D0004FEA03334CEA133302D0524263EB43033A
:1001E00094EA050F00F0A780A4F10104D5F1200ED8
:1001F0000DDB02FA0EFC22FA05F2801841F1000133
:1002000003FA0EF2801843FA05F359410EE0A5F106
:1002100020050EF1200E012A03FA0EFC28BF4CF037
:10022000020C43FA05F3C01851EBE37101F00045ED
:1002300007D54FF0000EDCF1000C7EEB00006EEBFA
:100240000101B1F5801F1BD3B1F5001F0CD3490884
:100250005FEA30004FEA3C0C04F101044FEA4452DB
:1002600012F5800F80F09A80BCF1004F08BF5FEA62
:10027000500C50F1000041EB045141EA050130BD42
:100280005FEA4C0C404141EB010111F4801FA4F1E5
:100290000104E9D191F0000F04BF01460020B1FA3A
:1002A00081F308BF2033A3F10B03B3F120020CDA72
:1002B0000C3208DD02F1140CC2F10C0201FA0CF050
:1002C00021FA02F10CE002F11402D8BFC2F1200CB5
:1002D00001FA02F120FA0CFCDCBF41EA0C0190406B
:1002E000E41AA2BF01EB0451294330BD6FEA0404B4
:1002F0001F3C1CDA0C340EDC04F11404C4F120029F
:1003000020FA04F001FA02F340EA030021FA04F3B0
:1003100045EA030130BDC4F10C04C4F1200220FA07
:1003200002F001FA04F340EA0300294630BD21FA45
:1003300004F0294630BD94F0000F83F4801306BF0B
:1003400081F480110134013D4EE77FEA645C18BFFF
:100350007FEA655C29D094EA050F08BF90EA020F96
:1003600005D054EA000C04BF1946104630BD91EA8E
:10037000030F1EBF0021002030BD5FEA545C05D191
:100380004000494128BF41F0004130BD14F58004D0
:100390003CBF01F5801130BD01F0004545F0FE4144
:1003A00041F470014FF0000030BD7FEA645C1ABF79
:1003B000194610467FEA655C1CBF0B46024650EAB0
:1003C000013406BF52EA033591EA030F41F40021DC
:1003D00030BD00BF90F0000F04BF0021704730B562
:1003E0004FF4806404F132044FF000054FF0000137
:1003F00050E700BF90F0000F04BF0021704730B5F8
:100400004FF4806404F1320410F0004548BF4042CC
:100410004FF000013EE700BF42004FEAE2014FEA21
:1004200031014FEA02701FBF12F07F4393F07F4FFC
:1004300081F06051704732F07F4208BF704793F0FF
:100440007F4F04BF41F40021704730B54FF4607412
:1004500001F0004521F000411CE700BF50EA010215
:1004600008BF704730B54FF000050AE050EA0102BE
:1004700008BF704730B511F0004502D5404261EB2E
:1004800041014FF4806404F132045FEA915C3FF46F
:10049000D8AE4FF003025FEADC0C18BF03325FEA0C
:1004A000DC0C18BF033202EBDC02C2F1200300FABD
:1004B00003FC20FA02F001FA03FE40EA0E0021FAE2
:1004C00002F11444BDE600BF70B54FF0FF0C4CF4D0
:1004D000E06C1CEA11541DBF1CEA135594EA0C0F82
:1004E00095EA0C0F00F0DEF82C4481EA030621EABD
:1004F0004C5123EA4C5350EA013518BF52EA0335F8
:1005000041F4801143F4801338D0A0FB02CE4FF0A9
:100510000005E1FB02E506F00042E0FB03E54FF0D9
:100520000006E1FB03569CF0000F18BF4EF0010ED1
:10053000A4F1FF04B6F5007F64F5407404D25FEACD
:100540004E0E6D4146EB060642EAC62141EA555180
:100550004FEAC52040EA5E504FEACE2EB4F1FD0CC2
:1005600088BFBCF5E06F1ED8BEF1004F08BF5FEA40
:10057000500E50F1000041EB045170BD06F00046F2
:1005800046EA010140EA020081EA0301B4EB5C049F
:10059000C2BFD4EB0C0541EA045170BD41F4801197
:1005A0004FF0000E013C00F3AB8014F1360FDEBFBC
:1005B000002001F0004170BDC4F10004203C35DA98
:1005C0000C341BDC04F11404C4F1200500FA05F31B
:1005D00020FA04F001FA05F240EA020001F00042BC
:1005E00021F0004110EBD37021FA04F642EB060132
:1005F0005EEA430E08BF20EAD37070BDC4F10C045C
:10060000C4F1200500FA04F320FA05F001FA04F21F
:1006100040EA020001F0004110EBD37041F100010B
:100620005EEA430E08BF20EAD37070BDC4F1200516
:1006300000FA05F24EEA020E20FA04F301FA05F27E
:1006400043EA020321FA04F001F0004121FA04F226
:1006500020EA020000EBD3705EEA430E08BF20EAF6
:10066000D37070BD94F0000F0FD101F00046400030
:1006700041EB010111F4801F08BF013CF7D041EAB2
:10068000060195F0000F18BF704703F000465200B6
:1006900043EB030313F4801F08BF013DF7D043EA87
:1006A0000603704794EA0C0F0CEA135518BF95EA3D
:1006B0000C0F0CD050EA410618BF52EA4306D1D1C4
:1006C00081EA030101F000414FF0000070BD50EAE3
:1006D000410606BF1046194652EA430619D094EA6D
:1006E0000C0F02D150EA013613D195EA0C0F05D157
:1006F00052EA03361CBF104619460AD181EA0301AB
:1007000001F0004141F0FE4141F470014FF0000062
:1007100070BD41F0FE4141F4780170BD70B54FF0FD
:10072000FF0C4CF4E06C1CEA11541DBF1CEA13557D
:1007300094EA0C0F95EA0C0F00F0A7F8A4EB05045F
:1007400081EA030E52EA03354FEA013100F0888056
:100750004FEA03334FF0805545EA131343EA12631F
:100760004FEA022245EA111545EA10654FEA0026D4
:100770000EF000419D4208BF964244F1FD0404F58D
:10078000407402D25B084FEA3202B61A65EB0305E9
:100790005B084FEA32024FF480104FF4002CB6EBA6
:1007A000020E75EB030E22BFB61A754640EA0C0026
:1007B0005B084FEA3202B6EB020E75EB030E22BF66
:1007C000B61A754640EA5C005B084FEA3202B6EBA7
:1007D000020E75EB030E22BFB61A754640EA9C0066
:1007E0005B084FEA3202B6EB020E75EB030E22BF36
:1007F000B61A754640EADC0055EA060E18D04FEAF4
:10080000051545EA16754FEA06164FEAC30343EA93
:1008100052734FEAC2025FEA1C1CC0D111F4801F60
:100820000BD141EA00014FF000004FF0004CB6E759
:1008300011F4801F04BF01430020B4F1FD0C88BFF8
:10084000BCF5E06F3FF6AFAEB5EB030C04BFB6EB03
:10085000020C5FEA500C50F1000041EB045170BDF6
:100860000EF0004E4EEA113114EB5C04C2BFD4EB23
:100870000C0541EA045170BD41F480114FF0000EA7
:10088000013C90E645EA060E8DE60CEA135594EA23
:100890000C0F08BF95EA0C0F3FF43BAF94EA0C0F26
:1008A0000AD150EA01347FF434AF95EA0C0F7FF49B
:1008B00025AF104619462CE795EA0C0F06D152EAEF
:1008C00003353FF4FDAE1046194622E750EA4106D3
:1008D00018BF52EA43067FF4C5AE50EA41047FF4E4
:1008E0000DAF52EA43057FF4EBAE12E7034613F86F
:1008F000012B002AFBD1181A013870474FF0FF3C3A
:1009000006E000BF4FF0010C02E000BF4FF0010C09
:100910004DF804CD4FEA410C7FEA6C5C4FEA430C82
:1009200018BF7FEA6C5C1BD001B050EA410C0CBFD1
:1009300052EA430C91EA030F02BF90EA020F002033
:10094000704710F1000F91EA030F58BF994208BF9A
:1009500090422CBFD8176FEAE37040F00100704757
:100960004FEA410C7FEA6C5C02D150EA013C07D1AE
:100970004FEA430C7FEA6C5CD6D152EA033CD3D0F9
:100980005DF8040B704700BF8446104662468C46F3
:100990001946634600E000BF01B5FFF7B7FF002826
:1009A00048BF10F1000F01BD4DF808EDFFF7F4FF4F
:1009B0000CBF012000205DF808FB00BF4DF808EDDA
:1009C000FFF7EAFF34BF012000205DF808FB00BFFD
:1009D0004DF808EDFFF7E0FF94BF012000205DF81F
:1009E00008FB00BF4DF808EDFFF7CEFF94BF0120D4
:1009F00000205DF808FB00BF4DF808EDFFF7C4FFCD
:100A000034BF012000205DF808FB00BF4FEA410C15
:100A10007FEA6C5C02D150EA013C0AD14FEA430CF8
:100A20007FEA6C5C02D152EA033C02D14FF0000035
:100A300070474FF0010070474FEA410212F5001273
:100A400015D211D56FF47873B3EB625212D94FEA15
:100A5000C12343F0004343EA505311F0004F23FAFF
:100A600002F018BF404270474FF00000704750EA54
:100A7000013005D111F0004008BF6FF00040704711
:100A80004FF00000704700BF38B54FF47A730D493E
:100A90000D4A09781268B3FBF1F30546B2FBF3F097
:100AA00000F0AEF808B90F2D01D9012038BD044679
:100AB000024629464FF0FF3000F052F8034B204623
:100AC0001D6038BD000000201C0100200400002033
:100AD000074A08B51368032043F01003136000F0C1
:100AE0002DF80020FFF7D0FF04F068FA002008BDC1
:100AF00000200240034A044B11681B780B4413602A
:100B0000704700BF5403002000000020014B18680C
:100B1000704700BF5403002038B50446FFF7F6FFC6
:100B2000631C054602D0044B1B781C44FFF7EEFF04
:100B3000401BA042FAD338BD000000204FF6FF0151
:100B4000064A0002D36800F4E0600B40184340F00E
:100B5000BF6040F40030D060704700BF00ED00E09F
:100B6000184B30B4DC68C4F30224C4F10705042D2B
:100B700004F1040328BF0425062B18D94FF0FF33D6
:100B8000033CA34022EA03024FF0FF33AB4021EACB
:100B90000303A34013431B010028DBB20ADB00F16F
:100BA000604000F5614080F8003330BC704700229F
:100BB0001446E9E7044A00F00F000244137630BC03
:100BC000704700BF00ED00E0FCEC00E0012300F006
:100BD0001F01034A40098B4042F82030704700BF94
:100BE00000E100E001224309044900F01F00203326
:100BF00002FA00F041F82300704700BF00E100E076
:100C00000138B0F1807F0DD230B4F02500220721E9
:100C1000054B064C586084F82350104630BC9A604F
:100C2000196070470120704710E000E000ED00E01F
:100C3000044A042813680CBF43F0040323F00403A0
:100C40001360704710E000E0704700BF08B5FFF781
:100C5000FBFF08BD90F82130022B04D004220123B1
:100C6000826318467047036810B51A681B4922F062
:100C70000E021A601A688B4222F001021A601FD01D
:100C8000174A93421AD0143293421ED01432934220
:100C90001ED0143293421ED0143293420CBF4FF434
:100CA00080134FF080734FF480710E4C426B636081
:100CB00001843AB190470023184610BD1023F2E793
:100CC0000123F0E71346184610BD4FF48073EAE79E
:100CD0004FF48053E7E74FF48033E4E70800024025
:100CE0001C000240000002402DE9F04F4FF00008C8
:100CF00083B043466A4EDFF8BCE1DFF8BCC102E0D6
:100D00000133102B7DD001220C689A4002EA0405C1
:100D1000AA42F5D14C68122C00F0A98000F2818023
:100D2000022C00F0A0806FD9032C00F09980112CC8
:100D300002D1CA6802F10408FF2D6CD8824602680D
:100D40009C004FF00F0909FA04FB22EA0B0208FA93
:100D500004F42243CAF80020D1F804A01AF0805FFE
:100D6000CED0504F23F00304BA6904F1804442F01E
:100D70000102BA61BA6904F5803402F001020192FD
:100D800003F0030B019A4FEA8B0BA268A7F5843797
:100D900009FA0BF9B84222EA090211D007F5806777
:100DA000B84268D0404FB84273D0404FB8420CBFF1
:100DB0004FF003094FF0040909FA0BFB42EA0B025A
:100DC000A26032681AF4803F14BF2A43AA433260FB
:100DD00072681AF4003F14BF2A43AA437260B268D3
:100DE0001AF4801F14BF2A43AA43B260F4681AF4AD
:100DF000001F03F1010314BF2C43AC43102BF4601C
:100E000081D103B0BDE8F08FC4B1012C94D1FF2D86
:100E1000D1F80C8092D99C004268203C00F1040A71
:100E20008FE774450AD00ED9644507D0204FBC42E5
:100E300004D0DFF888904C457FF47EAF8C680CBB03
:100E40004FF0040878E7DFF878904C45F6D009F5C4
:100E500080394C457FF470AF8C68002CF0D011E0E5
:100E60004FF0000868E7CA6802F1080864E7CA683A
:100E700002F10C0860E74FF0010909FA0BFB42EAA6
:100E80000B029DE7012C0CBF026142614FF0080884
:100E900052E74FF0020909FA0BFB42EA0B028FE717
:100EA0000004014000100240001001400014014005
:100EB000000032100000211000003110000022104C
:100EC000000011108368194214BF012000207047F0
:100ED00002B9090401617047704700BF044A5169B3
:100EE000014200D1704708B55061FFF7F5FF08BD1A
:100EF00000040140002800F084812DE9F04F90F8B3
:100F0000293487B0044603F0FF02002B00F07481FF
:100F10004FF0030926466D4684F82994206801F0B5
:100F2000A9FC56F8107B04F1040A0FCE0FC53368F4
:100F300038462B609AE80E0001F08AFC00212068F8
:100F400001F0A2FC4FF48073238540F20113A4F852
:100F500048304FF48173A4F8683040F20313A4F8CA
:100F600088304FF48273A4F8A83040F20513A4F837
:100F7000C8304FF483730025A4F8E83040F207131B
:100F800084F82B50C4E90E55256484F84B50C4E90D
:100F90001655256684F86B50C4E91E55C4F8805078
:100FA00084F88B50C4E92655C4F8A05084F8AB509F
:100FB000C4E92E55C4F8C05084F8CB50C4E9365566
:100FC000C4F8E05084F8EB50C4E93E55A4F8083169
:100FD0004FF48473A4F8283140F20913A4F848317F
:100FE0004FF48573A4F8683140F20B13A4F88831EC
:100FF0004FF48673A4F8A83140F20D13C4F80051E1
:1010000084F80B51C4E94655C4F8205184F82B519B
:10101000C4E94E55C4F8405184F84B51C4E95655C3
:10102000C4F8605184F86B51C4E95E55C4F880512E
:1010300084F88B51C4E96655C4F8A05184F8AB51CB
:10104000C4E96E55C4F8C051A4F8C831A4F8889218
:10105000A4F894904FF002094FF00108A4F86892A8
:10106000A4F874904FF487734FF00409A4F8E831A2
:1010700084F8CB51C4E97655C4F8E05184F8EB51BB
:10108000C4E97E55C4F80052A4F82852A58684F815
:101090002B52C4E98E55C4F8405284F84B52C4E92F
:1010A0009655C4F8605284F86B52C4E99E55C4F852
:1010B000805284F88B52C4E9A655A4F84882A4F85B
:1010C0005480C4F8A052A4F8A892A4F8B4904FF0A9
:1010D0000509A4F8C892A4F8D4904FF00609A4F822
:1010E000E892A4F8F4904FF007094FF0090B4FF085
:1010F0000A0E0B200C210D222746A4F80893A4F811
:1011000014914FF00E034FF00809EC4684F8AB52EF
:10111000C4E9AE55C4F8C05284F8CB52C4E9B65500
:10112000C4F8E05284F8EB52C4E9BE55C4F8005349
:1011300084F80B53C4E9C655C4F8205384F82B53E4
:10114000C4E9CE55C4F84053A4F82893A4F83491C8
:10115000A4F848B3A4F854B184F84B53A4F868E356
:10116000A4F874E1A4F88803A4F89401A4F8A813DF
:10117000A4F8B411A4F8C823A4F8D421A4F8E8333F
:10118000A4F8F431C4E9D655C4F8605384F86B531D
:10119000C4E9DE55C4F8805384F88B53C4E9E6559E
:1011A000C4F8A05384F8AB53C4E9EE55C4F8C05357
:1011B00084F8CB53C4E9F655C4F8E05384F8EB53F4
:1011C000C4E9FE55C4F8005457F810EB0FCFACE853
:1011D0000F0033687046CCF800309AE80E0001F03A
:1011E00055FB84F82450206884F8298401F018FF06
:1011F000284607B0BDE8F08F80F8282404F088F86E
:1012000086E60120704700BF90F82834012B10D0EB
:10121000012110B5044680F8281404F0B1F92068C3
:1012200001F0FCFE206801F01BFB002084F828047C
:1012300010BD0220704700BF2DE9F04F044683B077
:10124000006801F0EFFE050400F1B5802268104649
:1012500001F0E8FE460500F19080206801F0E2FE12
:1012600010F4804F206807D0B0F8443023F4804356
:101270001B041B0CA0F8443001F0D4FE10F4005FF6
:1012800020681ED101F0CEFEC50426D4206801F0EE
:10129000C9FE000542D4206801F0C4FE82055FD477
:1012A000206801F0BFFEC30508D52268B2F84430BB
:1012B00023F480731B041B0CA2F8443003B0BDE878
:1012C000F08FB0F8443023F400531B041B0CA0F83B
:1012D000443001F0A7FEC504D8D522682046B2F8F4
:1012E000403023F004031B041B0CA2F84030B2F87A
:1012F000403023F008031B041B0CA2F8403004F01C
:101300005FF82068B0F8443023F480531B041B0CB2
:10131000A0F8443001F086FE0005BCD52368B3F880
:101320004020184642F00802A3F84020B3F84420B9
:1013300022F400621204120CA3F84420B3F84020F7
:1013400042F00402A3F8402001F06CFEC104A2D4D4
:10135000204604F025F8206801F064FE82059FD540
:1013600022682046B2F8443023F400731B041B0C9F
:10137000A2F8443004F002F892E722682046B2F85E
:10138000443023F480631B041B0CA2F8443003F0A8
:10139000F9FF94F82834012B3FF45FAF00250123B7
:1013A00084F8245084F828342946206801F030FE5F
:1013B00084F8285451E700232268ADF80430ADF8D2
:1013C0000630B2F844309BB21804ADF804307FF513
:1013D0003EAFDFF8FC93DFF8FCA3DFF8FCB31BE0C3
:1013E000BDF80410138811F0100100F098809BB232
:1013F000ADF80630BDF80630190500F1EF80BDF8F4
:1014000006301B0400F12A81B2F844309BB21F045D
:10141000ADF804307FF51BAFBDF8046016F00F0681
:10142000DED032F826309BB2ADF80630BDF806307B
:1014300019043BD4BDF806301B06E5D532F826303A
:10144000750109EA030322F82630611991F8323058
:1014500002F58060002B40F0A180B2F8503091F886
:10146000287003EBC703023350F81330C3F30903AA
:101470004B64002B40F094812544B2F8503095F82D
:101480002860E96B03EBC603023350F813302E6C6F
:10149000C3F3090319446B64E963002E66D195F820
:1014A0002810204603F062FF2268ADE740F68F73F4
:1014B00032F8261075010B4022F8263004EB05089F
:1014C00098F8323202F58060002B40F0A780B2F825
:1014D000503098F8281203EBC103063350F813700C
:1014E000C7F30907002F40F02B812544D5F844327B
:1014F000D5E98F203B443A44C5F84432C5F83C2234
:10150000002800F03581D5F8383295F828129F422E
:1015100080F03181204603F021FF22688AE709EA42
:1015200003031380B2F8500094F82850E36B00EBEB
:10153000C50002EB4002D2F804242046C2F309029F
:101540001344E363626403F011FF94F824301BB387
:10155000236C2268002B7FF457AF94F8241041F0DD
:101560008001A2F84C1084F824304DE74FF0000CB5
:10157000012795F82850104605F07F056A01A31849
:101580002832C3E90F1683F82850A118C3F844C0C5
:1015900083F8297001F0C6FB226835E791F82830FE
:1015A00004EB461632F82370DB0017F0400FB2F858
:1015B00050703B4400F08D80023350F81330C3F379
:1015C00009037364002B00F08C801046CA8DC96B30
:1015D00001F02EFD226802F5806082E0B2F8503002
:1015E00094F82812104603EBC10302EB4302D2F831
:1015F0000C3404F22C41C3F30903B4F82C22C4F8D0
:10160000443201F023FD40F68F7322682046118892
:101610000B40138003F09CFE2268F5E698F8283210
:1016200032F8237002EB830117F4804FB2F8507048
:101630004FEAC3033B4463D1063350F81370C7F33A
:101640000907002F40F0BE8040F60F730A88134050
:1016500043F4004343F0C0030B8046E740F68F732A
:1016600011880B401380B2F8503094F8281203EB25
:10167000C10302EB4303D3F80C34C3F30903C4F8EA
:101680004432002B65D10021204603F067FE22681A
:10169000D4F83812B2F850303E2902F5806503F1D3
:1016A000060342D9C1F34F10CF0604BF00F1FF304B
:1016B00080B24BEA802080B245F8130013880AEA12
:1016C000030383F4405343F4004343F08003138047
:1016D0009AE6063350F81330C3F309037364002B02
:1016E00067D140F60F73611991F8281032F8216024
:1016F000334043F4404343F0800322F82130BBE6FB
:10170000023350F81370C7F30907002F9CD03B46F3
:101710001046B8F82E22D8F83C1201F097FC98F841
:101720002832216801EB83018EE7C1F34F00CE0719
:1017300044BF013080B2800280B245F81300BDE79B
:1017400010463B46B8F82C22D8F83C1201F07EFC3B
:10175000CBE61046D4F83C12B4F82C2201F076FC0B
:10176000D4F83C32D4F844221344C4F83C328AE71B
:1017700095F82812CEE6002701F07F014D0163198C
:1017800005F50A75C3E98F2083F82812C3F844725F
:10179000611983F82972206801F0C4FA226849E6C9
:1017A00010468A8DC96B01F043FC226802F5806007
:1017B00062E610460A8EC96B01F03AFC226802F517
:1017C00080608EE710463B46B8F83022A3E700BFA2
:1017D0000F8FFFFF8FBFFFFF0080FFFF90F82824CF
:1017E000012A0DD010B50446012284F8241080F897
:1017F0002824006801F00CFC002084F8280410BDA7
:101800000220704738B54CB2002C01F07F05B5BFFF
:1018100000EB451100EB4111283101F50A71E40F8D
:101820004C700D70CB7090F828340A61012B0AD0EF
:101830000123044680F82834006801F041F80020B4
:1018400084F8280438BD022038BD00BF4BB2002BFD
:1018500001F07F02B5BF00EB421100EB41112831CE
:1018600001F50A71DB0F4B700A7090F82834012BD8
:101870000BD0012310B5044680F82834006801F02D
:1018800089F9002084F8280410BD0220704700BFA9
:1018900070B5002601F07F014D01441905F50A7568
:1018A00084F82812C4E98F2341190068C4F84462FF
:1018B00084F8296201F036FA304670BD01F00F015C
:1018C00000EB4111B1F84402704700BFF8B50026A3
:1018D000012701F07F014D014419283584F82810B3
:1018E000C4E90F234119006884F82970666401F087
:1018F00019FA3046F8BD00BF012238B54BB2002BB3
:1019000001F07F05B5BF00EB451100EB4111283117
:1019100001F50A71DB0F4B700D708A7090F8283456
:10192000934210D0044680F82824006801F0F4FAAD
:101930001DB1002084F8280438BD04F22C41206831
:1019400001F074FBF5E7022038BD00BF38B5002573
:101950004BB2002B01F07F02B5BF00EB421100EB50
:101960004111283101F50A71DB0F4B700A708D703F
:1019700090F82834012B0AD00123044680F828343B
:10198000006801F0FBFA84F82854284638BD02208C
:1019900038BD00BF11F0800F11D001F07F0100EBC6
:1019A0004110283099B21AB98180827200207047A4
:1019B00001221B0C0381C18082720020704700EB62
:1019C000411000F50A70EDE72DE9F041036882B09F
:1019D000DD07044630D5AB494A6802F00C02042A00
:1019E00000F0DA804A6802F00C02082A00F0D08089
:1019F0006368B3F5803F00F00F81002B00F0278172
:101A0000B3F5A02F00F0B5819E4B1A6822F4803206
:101A10001A601A6822F480221A60FFF777F8994D4D
:101A2000064605E0FFF772F8801B642800F20B8180
:101A30002B689A03F6D523689F0728D5914A5168E9
:101A400011F00C0F00F0B680516801F00C0108296C
:101A500000F0AC802369002B00F0418101228A4B09
:101A6000884D1A60FFF752F8064605E0FFF74EF87A
:101A7000801B022800F2E7802B689807F6D52B68B8
:101A8000626923F0F80343EAC2032B6023681A0754
:101A900022D5A369002B00F0988001227B4B794D61
:101AA0001A60FFF733F8064605E0FFF72FF8801BB2
:101AB000022800F2C8806B6A9B07F6D5744B754A02
:101AC0001B68A2FB03235B0A019300BF019B5A1E04
:101AD0000192002BF9D123685D0739D5694BDA698A
:101AE000D00040F1828000256B4B1A68D10540F18F
:101AF0009980E368012B0FD0002B00F0D180052BDB
:101B0000604B1A6A00F0FC8022F001021A621A6A25
:101B100022F004021A6204E05A4A136A43F00103F5
:101B20001362FEF7F3FF574E804641F2883706E016
:101B3000FEF7ECFFA0EB0800B84200F28480336AA5
:101B40009B07F5D525B14F4AD36923F08053D36164
:101B5000E369CBB14B4D6A6802F00C02082A30D021
:101B6000022B4FF000024D4B00F0D2801A60FEF7BE
:101B7000CDFF2C46054604E0FEF7C8FF401B0228B7
:101B800061D823689B01F7D4002002B0BDE8F08142
:101B90004A68D0037FF52CAF3A4A126891037FF56B
:101BA0004BAF6268002A7FF447AF0AE05268D60361
:101BB0003FF550AF334A1268950721D52269012AB3
:101BC0001ED0012002B0BDE8F081304A2D4D1360D7
:101BD000FEF79CFF064604E0FEF798FF801B0228F4
:101BE00031D86B6A9F07F7D475E7DA69012542F0AF
:101BF0008052DA61DB6903F080530093009B73E746
:101C0000204960690A6822F0F80242EAC0020A60CC
:101C10001A077FF561AF3CE71A4A136843F4803333
:101C20001360FAE61A681E4642F480721A60FEF7E4
:101C30006DFF07463368DA053FF55BAFFEF766FFD9
:101C4000C01B6428F6D9032002B0BDE8F08103F17F
:101C5000804303F504331A681D4622F480321A606B
:101C60001A6822F480221A60FEF750FF064604E04C
:101C7000FEF74CFF801B6428E5D82B689B03F7D444
:101C8000D9E600BF001002400000424280044242F8
:101C90001C010020D34D62100070004060004242E1
:101CA00003F1804303F504331A6A1E4622F0010251
:101CB0001A621A6A41F2883822F004021A62FEF7A8
:101CC00025FF074604E0FEF721FFC01B4045BAD8B8
:101CD000336A9807F7D4002D3FF43AAF33E72B4A25
:101CE0002B4D1360FEF712FF064604E0FEF70EFFD1
:101CF000801B0228A7D82B689907F7D42368C6E66B
:101D000042F004021A621A6A42F001021A6208E7FB
:101D10001A60FEF7FBFE064604E0FEF7F7FE801BA6
:101D2000022890D82B689901F7D4226AB2F5803F37
:101D300005D16B68A16823F400330B436B60012568
:101D4000134B606A5968024321F4741111480A4325
:101D50005A6005601C46FEF7D9FE054605E0FEF711
:101D6000D5FE401B02283FF66EAF23689A01F6D5D8
:101D70000AE703F18043A3F53C331A6842F480225A
:101D80001A601A6842F480321A6046E60000424245
:101D90000010024060004242644A136803F00703E7
:101DA0008B420BD2136823F007030B4313601368B5
:101DB00003F007038B4201D0012070472DE9F04169
:101DC000036886B09A0706D5594C8568626822F088
:101DD000F0022A436260DB0705460C4624D54268C0
:101DE000534B012A1B6800F09480022A00F08D807A
:101DF000980729D54E4E41F28838736823F00303C3
:101E000013437360FEF782FE6B680746012B6BD0AD
:101E1000022B05D173E0FEF779FEC01B40457CD84C
:101E2000736813F00C0FF6D1404A136803F00703F0
:101E3000A3420DD9136823F00703234313601368EB
:101E400003F00703A34203D0012006B0BDE8F081F0
:101E50002B68590706D53649E8684A6822F4E062DB
:101E600002434A601A0707D5314A2969536823F4A7
:101E7000605343EAC103536040F201222D4B06AC8C
:101E8000ADF804200FCB04E90F0029494A6802F09D
:101E90000C03082B10D0284B254A284852682849A3
:101EA000C2F30312825C0020D3400B60FEF7ECFD0E
:101EB000002006B0BDE8F081C2F38343234413F849
:101EC000100CD3032DD54A681B4BC2F3404203FBD1
:101ED00000F3224412F8142CB3FBF2F3DCE7FEF714
:101EE00015FEC01B404518D8736803F00C03042B83
:101EF000F5D199E7FEF70AFEC01B40450DD873687F
:101F000003F00C03082BF5D18EE79E013FF572AF6D
:101F10009AE79F033FF56EAF96E7032006B0BDE852
:101F2000F081084B03FB00F3B6E700BF002002403E
:101F300000100240B877000800127A0034780008D8
:101F40001C01002000093D00014B1868704700BFCC
:101F50001C010020044B05495B68054AC3F30223BA
:101F6000CB5C1068D84070470010024044780008ED
:101F70001C010020044B05495B68054AC3F3C223DA
:101F8000CB5C1068D84070470010024044780008CD
:101F90001C0100202DE9F0410446006882B0C5070D
:101FA00027D53C4BDA69D1003AD53B4B00251A685E
:101FB000D20543D5374960680A6A12F440720FD0DF
:101FC00000F4407393420BD0012700260B6A334A7A
:101FD00023F44070176016600862D80749D460681F
:101FE0002C4A136A23F44073034313622068002DC4
:101FF00038D1830706D5274AA168536823F44043A4
:102000000B43536010F0100007D00020214AE16814
:10201000536823F480030B43536002B0BDE8F081A2
:10202000DA69012542F08052DA61DB6903F08053FE
:102030000193019B184B1A68D205BBD41A681E463F
:1020400042F480721A60FEF761FD07463368DB05D3
:10205000B0D4FEF75BFDC01B6428F7D9032002B0A3
:10206000BDE8F081D36923F08053D3618307C9D5DC
:10207000C1E70E46FEF74AFD41F288378046336AD3
:102080009A07ACD4FEF742FDA0EB0800B842F6D99F
:10209000E4E700BF001002400070004040044242EC
:1020A000F8B507460D4614461E46731C386809D11C
:1020B000836835EA03030CBF01230023A342F7D151
:1020C0000020F8BD836835EA03030CBF0123002319
:1020D0009C42F5D036B1FEF719FD069BC01AB042FE
:1020E000E3D3386843687A6823F0E003B2F5827F6F
:1020F000436015D0BB6AB3F5005F07D0012200230F
:1021000087F8512087F850300320F8BD4DF6FF7254
:10211000036813400360036843F400530360EDE772
:10212000BB68B3F5004F02D0B3F5806FE2D103680E
:1021300023F040030360DDE72DE9F043044690F807
:10214000500085B001280C9F7AD09946012384F86D
:10215000503015460E46FEF7D9FC94F851208046C3
:10216000D2B2012A636811D0B3F5827F09D0022070
:102170000122002384F8512084F8503005B0BDE8D6
:10218000F083A1680029F2D1042AF0D1002E5BD09F
:10219000002D59D0B9F1000F56D094F851200021EC
:1021A000012A04BF052284F8512022686165A4F841
:1021B0003E90A4F836901068A5634006A4F83C90C1
:1021C0002663A4F83490C4E9101103D4116841F0D7
:1021D00040011160E168B1F5006F37D0002B53D09A
:1021E000E38E9BB2012B4FD0781C40F090800122EF
:1021F000E38E9BB21BB9E38F9BB2002B39D072B137
:10220000E38E9BB25BB123689968890707D50022EA
:1022100016F8011B1973E38E013B9BB2E386E38F33
:102220009BB2002BE4D023689968C807E0D5DB682F
:10223000012205F8013BE38F013B9BB2E387D7E71F
:10224000022005B0BDE8F083012091E7002B59D1B1
:1022500036F8023BD360E38E013B9BB2E386791CE8
:1022600040F088800121E38E9BB263BBE38F9BB279
:102270004BBBCDF800803B46012202212046FFF7F0
:102280000FFF48B1032073E716F8013B1373E38E89
:10229000013B9BB2E386A7E70246CDF800803B46B0
:1022A00080212046FFF7FCFE002840F09780A368BD
:1022B000002B7FF45DAF23680390DA6803929B687C
:1022C0000393039B54E769B1E38E9BB253B19368C8
:1022D0009B0707D5002136F8023BD360E38E013B14
:1022E0009BB2E386E38F9BB2002BBCD09368D807E8
:1022F000B9D5D368012125F8023BE38F013B9BB29E
:10230000E387B0E7E38E9BB2012BA8D1A0E74FF0A3
:102310000109E38E9BB21BB9E38F9BB2002BA8D0BF
:10232000B9F1000F0FD0E38E9BB263B123689A68B6
:10233000910708D54FF0000916F8012B1A73E38EA8
:10234000013B9BB2E386E38F9BB263B123689A683B
:10235000D20708D54FF00109DB6805F8013BE38F90
:10236000013B9BB2E387FEF7D1FBA0EB0800B8422C
:10237000CFD387E74FF00109E38E9BB223B9E38FF8
:102380009BB2002B3FF475AFB9F1000F0FD0E38E75
:102390009BB263B123689A68910708D54FF0000992
:1023A00036F8022BDA60E38E013B9BB2E386E38FC3
:1023B0009BB263B123689A68D20708D54FF0010930
:1023C000DB6825F8023BE38F013B9BB2E387FEF716
:1023D0009DFBA0EB0800B842CED353E72022636DEB
:1023E0000120134363656265C2E600BF002839D04F
:1023F000F8B5002390F851200446836272B31A4660
:10240000D4E90136022700210125E068334326691B
:10241000034360693343E66903433343206AA66993
:1024200084F851700343276806F400700343134394
:102430003A68606A22F04002360C3A6006F0040600
:102440003B60E36A06437E603B61FB69084623F418
:102450000063FB61616584F85150F8BD02F006FE2F
:10246000A26ACDE7012070472DE9F84304460368CE
:10247000C0681969A26821F4405101431961D96803
:10248000D4E9045021F4B0512A4321F00C01024355
:102490000A43DA605A69A0694D4922F44072024346
:1024A0008B425A6155D0FFF755FD636800EB800001
:1024B00000EB80009B00B0FBF3F3464F4FF0640845
:1024C000A7FB03235B091D01FFF744FD666800EBD2
:1024D000800000EB8000B600B0FBF6F6FFF73AFD97
:1024E000626800EB8000930000EB8000B0FBF3F328
:1024F000A7FB03235B0908FB13631B013233A7FB14
:1025000003235B0903F0F006FFF724FD626800EB8C
:10251000800000EB80009300B0FBF3F9FFF71AFD99
:10252000626800EB8000930000EB8000B0FBF3F3E7
:10253000A7FB03235B0908FB13931B013233A7FBA3
:102540000323C3F34313334322682B449360BDE852
:10255000F883FFF70FFD636800EB800000EB80005D
:102560009B00B0FBF3F31B4F4FF06408A7FB032362
:102570005B091D01FFF7FEFC666800EB800000EBC5
:102580008000B600B0FBF6F6FFF7F4FC626800EBE3
:102590008000930000EB8000B0FBF3F3A7FB032364
:1025A0005B0908FB13631B013233A7FB03235B09A1
:1025B00003F0F006FFF7DEFC626800EB800093009A
:1025C00000EB8000B0FBF3F9FFF7D4FCA8E700BFF5
:1025D000003801401F85EB5160B338B590F83930B1
:1025E000044603F0FF0203B32423226884F8393041
:1025F000D368204623F40053D360FFF735FF00254E
:102600002021236828461A6922F490421A615A69E7
:1026100022F02A025A61DA6842F40052DA60E56375
:1026200084F8391084F83A1038BD80F8382002F068
:1026300049FDD9E701207047704700BF704700BFD0
:1026400010B584680169B4F5805F836A02680ED0B2
:102650005C1C5268846239B91A70C38D013B9BB20D
:10266000C38563B1002010BD02F07F02F4E7526819
:10267000C9B9C2F3080223F8022B8362EDE72024D4
:102680000268D16821F02001D160D16821F4807105
:10269000D160516921F00101516180F83A40FFF7A2
:1026A000CDFF002010BDD2B223F8012B8362D4E706
:1026B000704700BF036870B51A6804461607DD68E6
:1026C00059690CD1960601D5A9064BD4160601D539
:1026D00028064FD4510601D56A0667D470BD01F0B3
:1026E000010105F490700843F0D0D60705D5E80540
:1026F00003D5E06B40F00100E063560702F00200F2
:1027000029D561B1E16B02F0080641F00201E163F5
:1027100018B1E16B41F00401E163002E55D1E16B8A
:102720000029DBD0900609D5A90607D594F83A20F0
:10273000222A03D12046FFF783FF23685A69E56BFD
:1027400002F0400205F00805154343D12046FFF78B
:10275000AFFFE56370BD002833D00029DFD002F061
:102760000806D6E790F83A30222BB7D1BDE8704082
:10277000FFF766BF94F83920212AAFD1A168226AF9
:10278000B1F5805F4BD0511C216212785A60E28C07
:10279000013A92B2E284002AA0D1DA6822F08002E3
:1027A000DA60DA6842F04002DA6070BD2021DA684F
:1027B000204622F04002DA6084F83910FFF73CFF2F
:1027C00070BD1607ABD50029A9D0E16B41F0080117
:1027D000E163A4E72021DA6822F49072DA605A6992
:1027E00022F001025A6184F83A105A69520612D551
:1027F0005A69616B22F040025A6161B10E4B084682
:102800004B63FEF727FA00283FF468AF606BBDE822
:102810007040436B18472046FFF74AFF70BD118890
:102820002069C1F30801596010B902322262AEE793
:1028300001322262ABE700BF3D280008002208B544
:10284000436ADA851846DA84FFF732FF08BD00BF15
:1028500084B001A880E80E0004B00020704700BFDB
:102860000246B0F84030002043F43F43A2F8403025
:10287000704700BF44F2FF230246B0F8401000202A
:102880000B40A2F8403070470020704784B070B40D
:10289000044601250020A4F84050A4F84000A4F804
:1028A0004400A4F85000B4F8406004AD46F43F463C
:1028B000A4F8406085E80E0070BC04B0704700BF0B
:1028C00070B40A78CB7800EB8204032B0ED8DFE8D3
:1028D00003F002BAB0A430F82240AA4B234043F4DC
:1028E000007320F822300A7800EB820440F60F755E
:1028F000238800F580662B40134343F4004343F0E4
:10290000800323808B7A6BBB8A880B784C785208C3
:102910005200DB00002C00F0DF80B0F85040234470
:1029200046F813200B7830F8234000EB830264064E
:102930000BD530F82320154045F4004545F0C0057F
:1029400020F823500A7800EB820211888E4B002079
:1029500070BC0B4083F0200343F4004343F080033A
:102960001380704740F60F630A7830F82240234006
:1029700043F4014343F0800320F82230CB88B0F8C1
:1029800050200C785B0802EBC4025B0046F8123062
:10299000B0F850300A890C780433520803EBC403B2
:1029A000520046F813200A784B7830F82240002B6A
:1029B00055D1660400EB82030BD530F822301D4060
:1029C00045F4404545F0800520F822500B7800EB97
:1029D00083031A88550600F1C88040F60F7248F24A
:1029E00080041D882A4042F4004242F0C0021A804E
:1029F0000A78664B30F822502B4083F4405323432F
:102A000020F822300A78604B30F822100B401C432B
:102A100020F82240002070BC704730F82240594B0B
:102A2000234043F4C06320F822300A7800EB82048C
:102A30005CE730F82240534B234020F822300A78DC
:102A400000EB820452E730F822404E4B234043F41F
:102A5000806320F822300A7800EB820446E76404A1
:102A600000EB82030BD530F822301D4045F4404581
:102A700045F0800520F822500B7800EB83031A887C
:102A800052060BD540F60F721C88224042F40042D9
:102A900042F0C0021A800B7800EB830340F60F72FD
:102AA00048F280041D882A4042F4404242F08002ED
:102AB0001A800A78344B30F822502B40234320F8F8
:102AC00022300A78314B30F822100B401C4320F89A
:102AD0002240002070BC7047B0F85050B0F8504011
:102AE0002B44043346F813200A690D78A31D3E2AAF
:102AF00003EBC5032BD8C2F34F04D50744BF013401
:102B0000A4B2A402A4B246F813400B7830F82340D4
:102B100000EB830264040DD540F60F7230F82340B9
:102B2000224042F4404242F0800220F823200A78FA
:102B300000EB82021188154B002070BC0B4083F41F
:102B4000405343F4004343F0800313807047C2F3C3
:102B50004F14D20604BF04F1FF3294B20C4A42EA89
:102B6000842292B246F81320CFE740F60F721C88F9
:102B7000224042F4004242F0C0021A800B7800EB7F
:102B800083032AE78F89FFFFBF8FFFFF8FBFFFFF00
:102B90000080FFFF30B40A788D7A00EB82034C7816
:102BA0006DBB7CB130F82240640600F1A88030BCD7
:102BB00019885A4A00200A4042F4004242F080023A
:102BC0001A80704730F8224065040DD540F60F7327
:102BD00030F82240234043F4404343F0800320F880
:102BE00022300B7800EB830319884D4A002030BC5B
:102BF0000A4042F4004242F080021A807047002CE2
:102C00003ED130F8224064040DD540F60F7330F801
:102C10002240234043F4404343F0800320F8223015
:102C20000B7800EB83031A8855060BD540F60F721C
:102C30001C88224042F4004242F0C0021A800B7805
:102C400000EB830340F60F7248F280041D882A408F
:102C500042F4004242F0C0021A800A78304B30F849
:102C600022502B40234320F822300A782B4B30F897
:102C700022100B401C4320F82240002030BC70473B
:102C800030F8224064040DD540F60F7330F822402E
:102C9000234043F4404343F0800320F822300B7874
:102CA00000EB83031A8852060BD540F60F721C887E
:102CB000224042F4004242F0C0021A800B7800EB3E
:102CC000830340F60F7248F280041D882A4042F4C4
:102CD000404242F080021A800A78104B30F82250AD
:102CE0002B40234320F822300A780D4B30F8221075
:102CF0000B401C4320F82240002030BC704740F6B7
:102D00000F7330F82240234043F4004343F0C003E4
:102D100020F822300B7800EB830348E7BF8FFFFFDA
:102D20008FBFFFFFF0B44C788E69012C0B6958D02F
:102D30009E4292BF0022F21A1E468B7A8A610A785E
:102D40003BBBB0F850303E2E03F1060300F5806423
:102D500003EBC20240F2A180C6F34F15F60604BF92
:102D600005F1FF339DB2694B43EA85239BB244F8DA
:102D700012300A7830F82210654BF0BC0B4083F417
:102D8000405343F4004343F0800320F822300020F6
:102D90007047002CEED1B0F850303E2E03F1020304
:102DA00000F5806403EBC20240F29480C6F34F1535
:102DB000F70604BF05F1FF339DB2544B43EA852368
:102DC0009BB244F812304D78002D40F09180B0F85D
:102DD00050200D78063202EBC50244F812300A7812
:102DE000C8E79E4286BFF21A1E460022B3B28C7A12
:102DF00001338A615B104F6900F58062ACB98C8841
:102E000002EB44042BB137F8025B013B24F8045B6E
:102E1000F9D1B0F850300C78023303EBC40342F818
:102E200013600A7800EB82022AE00C7830F8245014
:102E3000B0F850C06D064FEAC4044CBF0D89CD8870
:102E40006444023442F8146002EB45022BB137F8B7
:102E5000024B013B22F8044BF9D10C784B7800EB84
:102E6000840233BB40F60F7330F82420134043F440
:102E7000004343F0C00320F824300A7800EB8202BC
:102E80001188244B0020F0BC0B4083F0300343F446
:102E9000004343F0800313807047C6F34F03F507E8
:102EA00044BF01339BB29B029BB244F812300A78B4
:102EB00060E7012BE4D140F60F7330F82420134073
:102EC00043F4404343F0800320F824300A7800EBB9
:102ED0008202D5E7C6F34F03F50744BF01339BB227
:102EE0009B029BB244F812304D78002D3FF46FAF37
:102EF000012D0A787FF43EAFB0F85030023303EB77
:102F0000C20244F812600A7834E700BF0080FFFF75
:102F10008FBFFFFFBF8FFFFF0B786BB90288144B89
:102F2000134083F4805383F0100343F4004343F0D1
:102F300080030380002070474A7830F823105AB18C
:102F40000C4A0A4082F0100242F4004242F0800231
:102F500020F8232000207047074A0A4082F480525C
:102F600042F4004242F0800220F823200020704703
:102F7000BFBFFFFFBF8FFFFF8FBFFFFF10B40B78F6
:102F80004C7800EB8302FCB130F8234064060CD48B
:102F900011881D4B00200B4083F0300343F40043A5
:102FA00043F08003138010BC704740F60F7230F876
:102FB0002340224042F4004242F0C00220F8232085
:102FC0000A7800EB8202E3E730F8234064040DD571
:102FD00040F60F7230F82340224042F4404242F063
:102FE000800220F823200A7800EB82021188074B28
:102FF00000200B4083F4405343F4004343F080032C
:10300000138010BC704700BFBF8FFFFF8FBFFFFF53
:1030100011B98023A0F84C30002070470020704781
:1030200000207047B0F84400704700BF0020704790
:10303000013300F580605B1000EB420205D031F8EF
:10304000020B013B22F8040BF9D17047013300F564
:1030500080605B1000EB420205D052F8040B013B8C
:1030600021F8020BF9D17047D0F818321BB10020BB
:10307000C3F8140270470220704700BFD0F81C321A
:1030800083B110B5D0F8184294F80002FF2807D099
:103090009B6894F8012221469847FF2384F8003268
:1030A000002010BD00207047432303800048704774
:1030B0004000002043230380004870478400002024
:1030C0004323038000487047D40000200A23038074
:1030D00000487047C800002038B50446D0F81852A0
:1030E00002F042FAD4F81832C5F80C024BB1D4F809
:1030F0001C3205F50371DB68D5F8040298470020FF
:1031000038BD022038BD00BFF8B50B780C4613F06F
:10311000600216D0202A12D1CA8805464E78C2B164
:103120001B06D0F818721BD5D0F81C323946304631
:103130009B689847E2883946284600F001FC002049
:10314000F8BD4B780A2BFAD10122094900F0F8FBAF
:10315000F5E7D0F81C3230469B6898470020F8BD50
:1031600087F8006287F80122394600F0FFFBE6E7A6
:103170005803002010B50446812102F091F9012185
:10318000204602F08DF92046822102F089F9D4F818
:10319000183253B1D4F81C325B689847D4F818023F
:1031A00002F0ECF90023C4F81832002010BD00BF73
:1031B000F8B5037C0446ABBB4FF4007302228121B7
:1031C00002F05EF94FF4007302220121204602F062
:1031D00057F9082303228221204602F051F94FF4C7
:1031E000077002F0C7F90546C4F8180230B300268C
:1031F000D4F81C321B689847277CD5F80422C5F800
:1032000014622046C5F8186237B94FF400730121E3
:1032100002F09CF93846F8BD4023012102F096F9EE
:103220003046F8BD40230222812102F029F94023D3
:1032300002220121204602F023F9CAE70120F8BD4D
:1032400019B1C0F81C12002070470220704700BF5F
:10325000D0F818320020C3F80812C3F810227047C3
:10326000D0F818320020C3F804127047D0F81822A2
:103270008AB110B5D2F814420CB1012010BD012161
:10328000B2F81032C2F81412D2F80822812102F0EA
:103290004FF9204610BD0220704700BFD0F8182219
:1032A0008AB110B5047CD2F8042234B94FF400730B
:1032B000012102F04BF9204610BD4023012102F00C
:1032C00045F9002010BD0220704700BF88B108B545
:1032D000D0F8143213B10023C0F8143209B1C0F889
:1032E00010120123027080F8FC3102F06DF800200A
:1032F00008BD0220704700BF19B1C0F814120020A9
:1033000070470220704700BF08B502F0ABF80020FC
:1033100008BD00BF08B5D0F814321BB11B68984730
:1033200000B908BD022008BD08B5D0F814325B68AA
:103330009847002008BD00BF38B5044600F5027567
:10334000284600F0C1FA012094F80812B4F80E22C1
:1033500001F01F038342C4E97D0209D0A3B1022B0F
:103360000CD001F08001204602F0A8F8002038BD02
:103370002946204600F020FA002038BD2946204684
:1033800000F038FA002038BD2946204600F0CAF87F
:10339000002038BD10B5044631B91346D0F8F421E9
:1033A000032A0DD0002010BDD0F814329B69002BE9
:1033B000F8D090F8FC21032AF4D19847002010BDE2
:1033C000D0E9431291420DD8D0F814321B6923B1D1
:1033D00090F8FC21032A00D19847204600F0DCFA3F
:1033E000002010BD891A8A4228BF0A46C0F80C1175
:1033F00092B2194600F0C8FAD4E700BF70B504468F
:1034000069B91346D0F8F421022A14D094F8003296
:10341000012B02D1002384F80032002070BDD0F8C7
:1034200014325B69002BF8D090F8FC21032AF4D108
:103430009847002070BDD0E9076296421DD8836985
:10344000B3FBF2F502FB15355DB99A4209D8D0F805
:10345000F821934205D22A4600F080FAC4F8F851C8
:1034600012E0D4F81432DB681BB194F8FC21032A73
:1034700011D0204600F09CFAC8E7B21A0D46C2618E
:10348000194692B200F06AFA2B462A46294620468F
:1034900002F05CF8BAE720469847EAE738B5002220
:1034A0004025044611462B4601F0EAFF2B46002238
:1034B000C4F810512046802101F0E2FF0122D4F827
:1034C0001832256284F8FC212BB1D4F8143221790A
:1034D0005B6820469847002038BD00BF017400207B
:1034E000704700BF0346042290F8FC11002083F8C7
:1034F000FD1183F8FC217047034690F8FD21002060
:1035000083F8FC21704700BF90F8FC21032A01D00A
:103510000020704708B5D0F81432DB6903B1984732
:10352000002008BD30B54B7883B00D460446092B0A
:103530000BD8DFE803F035480A580A05650A7B1501
:103540008B8813B9CB88002B7DD08021204601F0D9
:10355000B5FF2046002101F0B1FF002003B030BDCF
:103560008978944D01292970EFD890F8FC31022B0D
:1035700000F08080032BE8D1002900F01181416820
:10358000012909D0C9B2FFF7CFFE29782046616032
:10359000FFF7C0FE0228D8D0204600F0FDF9DCE796
:1035A00090F8FC31023B012BCFD80122D0F8043235
:1035B000C2600BB10323C360022204F10C01204658
:1035C00000F0BEF9C9E790F8FC31023B012BBCD8F2
:1035D0004B88012BC1D10022D0F81432C0F804224C
:1035E0009B689847D8E74B88012BB6D1D0F81422B6
:1035F000C0F8043293689847204600F0CDF9ACE754
:103600004A88130A013B062B9FD801A151F823F0E9
:10361000DD3600089F3600088D3600084B3500085F
:103620004B35000807370008ED360008CA88012A24
:103630008BD190F8FC31022B70D0032B85D1011D6A
:1036400000F07EF989E790F8FC31032B3FF47DAF61
:103650008D7805F07F0580F8FE51294601F05AFF6C
:10366000204600F099F9002D00F08F80022384F8A5
:10367000FC3172E700298FD001210323416080F8DB
:10368000FC31FFF747FE022886D15EE7D2B2052A59
:103690003FF65BAFDFE802F0716961595149027C86
:1036A000D0F81432002A74D19B6A0DF106009847B5
:1036B00002234370BDF80630002B3FF44EAFEA887A
:1036C000002A3FF44AAF934228BF134601461A46E8
:1036D0002046ADF8063000F033F93EE7D0F810325E
:1036E0000DF106011B68007C9847E3E7037C002B83
:1036F0007FF42BAFD0F814320DF106001B6B984706
:1037000007234370D6E7037C002B7FF41EAFD0F86D
:1037100014320DF106005B6B9847CBE7002301469E
:1037200041F8083F00F00CF917E7D0F810320DF11E
:1037300006019B69007C9847BCE7D0F810320DF178
:1037400006015B69007C9847B4E7D0F810320DF1B0
:1037500006011B69007C9847ACE7D0F810320DF1E8
:103760000601DB68007C9847A4E7D0F810320DF121
:1037700006019B68007C98479CE7D0F810320DF159
:1037800006015B68007C984794E7012384F8FC31CC
:10379000E3E6DB6A0DF1060098470223437089E7F0
:1037A0000223416080F8FC31FFF7BEFD204600F0A7
:1037B000F3F8D2E65903002038B590F8FC310446FE
:1037C000032B0DD10B790D46012B09D8D0F81432FB
:1037D0009B689847EB885BB9204600F0DDF807E06E
:1037E0008021204601F06AFE2046002101F066FE9D
:1037F000002038BD70B50B788A8803F06003202B59
:10380000054620D04B780C46012BD6B231D0002B88
:103810003ED0032B15D190F8FC31022B23D0032B83
:1038200017D14B8823B9730602D0314601F046FE0A
:10383000D5F8143221469B6828469847284600F060
:10384000ABF8002070BDD0F814329B689847002078
:1038500070BD8021284601F031FE2846002101F08C
:103860002DFE002070BD7206EBD0314601F026FE21
:10387000E7E790F8FC31022BF5D0032BE9D14B8818
:10388000002BDED17106D9D0314601F025FECFE7FD
:1038900090F8FC31022BE6D0032BDAD106F07F043E
:1038A00000EB0414130631464CBF143404F5827443
:1038B00001F020FE003018BF0120214620600222C6
:1038C000284600F03DF8BCE70B7803704B78437056
:1038D000CA788B7803EB022343804A790B7903EB98
:1038E00002238380CA798B7903EB0223C38070475C
:1038F00010B3037870B403B30446C0F10106A319F2
:1039000014F8015FDBB2002DF9D101335B00DCB2AA
:10391000032513800C704D7004785CB102230025E0
:103920005A1CD2B2CC548D5410F8014F0233DBB282
:10393000002CF5D170BC7047704702242346E7E79E
:1039400038B5134602250A46C0E90633C0F8F451DB
:10395000002101F0EDFD002038BD00BF08B5134681
:103960000A46002101F0E4FD002008BD38B51346E9
:1039700003250A46C0E94233C0F8F451002101F0A2
:10398000E5FD002038BD00BF08B513460A460021FA
:1039900001F0DCFD002008BD08B504220023C0F8BA
:1039A000F42119461A4601F0C3FD002008BD00BFEE
:1039B00008B505220023C0F8F42119461A4601F083
:1039C000C5FD002008BD00BF38B5214D2B78012B67
:1039D0003CD001F061F8002001F066F8012001F010
:1039E0007DF8002001F07AF80446012001F05CF82F
:1039F00001F056F801F050F8002001F055F8812050
:103A000001F06CF804F0E30040F0040001F066F807
:103A1000012001F049F801F043F812E001F03CF810
:103A2000204601F041F8272001F058F8204601F027
:103A300055F80446012001F037F801F031F823066B
:103A400002D42C78002CE9D001232B7038BD00BFA4
:103A50001701002070B58D4D2B78834263D0064648
:103A6000042860D8DFE800F06083A8CD030001F0EF
:103A700013F8002001F018F8012001F02FF80020C1
:103A800001F02CF80446012001F00EF801F008F8CE
:103A900001F002F8002001F007F8812001F01EF883
:103AA00004F0E30040F00C0001F018F8012000F0F1
:103AB000FBFF00F0F5FF00F0EFFF002000F0F4FF47
:103AC000DA2001F00BF85D2001F008F8012000F089
:103AD000EBFF00F0E5FF00F0DFFF002000F0E4FF67
:103AE000DC2000F0FBFF7C2000F0F8FF012000F05C
:103AF000DBFF00F0D5FF12E000F0CEFF204600F023
:103B0000D3FF272000F0EAFF204600F0E7FF04463D
:103B1000012000F0C9FF00F0C3FF230602D42C7877
:103B2000002CE9D02E7070BD00F0B6FF002000F030
:103B3000BBFF012000F0D2FF002000F0CFFF0446C1
:103B4000012000F0B1FF00F0ABFF00F0A5FF002066
:103B500000F0AAFF812000F0C1FF04F0E30000F0B4
:103B6000BDFF012000F0A0FF00F09AFFD7E700F0B2
:103B700093FF002000F098FF012000F0AFFF00202D
:103B800000F0ACFF0446012000F08EFF00F088FF3B
:103B900000F082FF002000F087FF812000F09EFFF0
:103BA00004F0E30040F0040000F098FF012000F072
:103BB0007BFF00F075FFB2E700F06EFF002000F021
:103BC00073FF012000F08AFF002000F087FF044609
:103BD000012000F069FF00F063FF00F05DFF0020AE
:103BE00000F062FF812000F079FF04F0E30040F074
:103BF000080000F073FF012000F056FF00F050FFB6
:103C00008DE700F049FF002000F04EFF012000F09A
:103C100065FF002000F062FF0446012000F044FF31
:103C200000F03EFF00F038FF002000F03DFF812053
:103C300000F054FF04F0E30040F0100000F04EFFED
:103C4000012000F031FF00F02BFF00F025FF0020E5
:103C500000F02AFFDA2000F041FF552000F03EFF7F
:103C6000012000F021FF00F01BFF00F015FF0020F5
:103C700000F01AFFDC2000F031FF702000F02EFF72
:103C8000012000F011FF00F00BFF48E717010020B2
:103C90002DE9F84F784D814628780E460128904648
:103CA0009B469DF828A03CD000F0F6FE002000F0D6
:103CB000FBFE012000F012FF002000F00FFF044681
:103CC000012000F0F1FE00F0EBFE00F0E5FE002028
:103CD00000F0EAFE812000F001FF04F0E30040F074
:103CE000040000F0FBFE012000F0DEFE00F0D8FE34
:103CF00012E000F0D1FE204600F0D6FE272000F0B2
:103D0000EDFE204600F0EAFE0446012000F0CCFE65
:103D100000F0C6FE210602D42C78002CE9D0012345
:103D20002B7000F0B9FE002000F0BEFE272000F04E
:103D3000D5FE002000F0D2FE0446012000F0B4FEC3
:103D400000F0AEFE2206ECD5474600F0A5FE0020AE
:103D500000F0AAFEA52000F0C1FE002000F0BEFE8B
:103D6000012000F0A1FE3D2F28BF3D2700F098FE66
:103D7000BAF1000F7DD1BBF1000F0CBF002440242D
:103D800000F08AFE002000F08FFE802000F0A6FEEA
:103D9000F81CC0B200F0A2FE484600F09FFE374B70
:103DA000187800F09BFE204600F098FEB8F1000F56
:103DB00009D00024013E013416F8010FE4B200F0EE
:103DC0008DFEBC42F7D3012000F06EFE00F068FECD
:103DD0000420FFF73FFE4FF47A7000F0ABFE02E0E4
:103DE00000F096FE18B900F06DFE0028F8D02B7890
:103DF000012B3CD000F050FE002000F055FE0120C9
:103E000000F06CFE002000F069FE0446012000F086
:103E10004BFE00F045FE00F03FFE002000F044FEA7
:103E2000812000F05BFE04F0E30040F0040000F0AD
:103E300055FE012000F038FE00F032FE12E000F0E6
:103E40002BFE204600F030FE272000F047FE2046E3
:103E500000F044FE0446012000F026FE00F020FEA3
:103E6000230602D42C78002CE9D001232B70BDE866
:103E7000F88F802484E700BF170100205C03002036
:103E800043F206332DE9F04107258CB0BB4CADF869
:103E90000C30BB4B1F280E468DF80E50CDE9014368
:103EA00000F058812B2800F04D81562800F05E81EB
:103EB0000823E4218DF81030C0238DF80F10092459
:103EC00042F62F51AF483025069001208DF8113071
:103ED000AD4BADF8124004F108448DF82320ADF845
:103EE0002010AA4AAA49059304F53B14A94B04F5EE
:103EF000E1548DF822500794CDE909120B93044642
:103F0000032700F0D1FD4FF00008022504E03D46F4
:103F100013F82B8C12F82C7C00F0BEFD002000F072
:103F2000C3FD65F07F00C0B200F0D8FD404600F050
:103F3000D5FD012000F0B8FD00F0B2FD2346621C63
:103F4000D4B2FF2F0CAA02EB430302EB4402DED1F2
:103F5000914D2B78012B3CD000F09EFD002000F00D
:103F6000A3FD012000F0BAFD002000F0B7FD0446DB
:103F7000012000F099FD00F093FD00F08DFD002080
:103F800000F092FD812000F0A9FD04F0E30040F074
:103F9000040000F0A3FD012000F086FD00F080FD8C
:103FA00012E000F079FD204600F07EFD272000F0B1
:103FB00095FD204600F092FD0446012000F074FDBE
:103FC00000F06EFD210602D42C78002CE9D00123EC
:103FD0002B7000F061FD002000F066FD3D2000F038
:103FE0007DFD002000F07AFD0446012000F05CFD1C
:103FF00000F056FD00F050FD002000F055FDBD2002
:1040000000F06CFD04F0FE0000F068FD012000F0FF
:104010004BFD00F045FD00F03FFD002000F044FDA9
:10402000932000F05BFD0F2000F058FD012000F010
:104030003BFD00F035FD00F02FFD002000F034FDC9
:10404000112000F04BFD002000F048FD0446012047
:1040500000F02AFD00F024FD00F01EFD002000F01D
:1040600023FD912000F03AFD04F01F0040F06000B5
:1040700000F034FD012000F017FD00F011FD2B7859
:10408000012B3CD000F008FD002000F00DFD0120C8
:1040900000F024FD002000F021FD0446012000F086
:1040A00003FD00F0FDFC00F0F7FC002000F0FCFC3C
:1040B000812000F013FD04F0E30040F0040000F064
:1040C0000DFD012000F0F0FC00F0EAFC12E000F031
:1040D000E3FC204600F0E8FC272000F0FFFC20462F
:1040E00000F0FCFC0446012000F0DEFC00F0D8FCEF
:1040F000220602D42C78002CE9D001232B70322028
:1041000000F018FD02E000F003FD90B900F0C4FCDF
:10411000002000F0C9FC272000F0E0FC002000F0A7
:10412000DDFC0446012000F0BFFC00F0B9FC2306D2
:10413000E9D500F0EDFCA8B90120184B1E700CB0B9
:10414000BDE8F08108236C218DF810308DF80F1038
:104150004023B4E608234E218DF810308DF80F105F
:10416000C023ACE600200CB0BDE8F0810823D921C3
:104170008DF810308DF80F100023A0E60200030226
:104180000440050326072810194225403C8F3D12A4
:10419000379038426F30FF00170100205C03002089
:1041A0001F2828BF1F2038B5144D4008287000F084
:1041B00073FC002000F078FC112000F08FFC002040
:1041C00000F08CFC0446012000F06EFC00F068FC5E
:1041D0002B7804F0E0041C4300F05EFC002000F0AB
:1041E00063FC912000F07AFC204600F077FC01206F
:1041F00000F05AFCBDE8384000F052BC1801002025
:104200002DE9F04F87B0CDE90201CDE9042300F09C
:1042100043FC002000F048FC3D2000F05FFC002043
:1042200000F05CFC0446012000F03EFC00F038FC8D
:1042300000F032FC002000F037FCBD2000F04EFC06
:1042400044F00400C0B27D4C00F048FC012000F0B6
:104250002BFC7B4D00F024FCDFF8F4A12378DFF881
:10426000F491DFF8F481774F032B44D0042B6CD00A
:1042700000F012FC2378032B68D0052B00F090800F
:104280000026714A714B89F8006088F800603E7022
:104290002E7016701E7000F0FFFB304600F004FC1C
:1042A000282000F01BFC304600F018FC834601205B
:1042B00000F0FAFB00F0F4FB1BF0040F4CD100F00F
:1042C000EBFB002000F0F0FBA52000F007FC4020F5
:1042D00000F004FC012000F0E7FB00F0E1FB03200C
:1042E000FFF7B8FB2378052BC0D00320FFF7B2FB04
:1042F0002378032BBAD12B7803F0FF06002BB7D11C
:1043000000F0CAFB304600F0CFFB242000F0E6FBB3
:10431000304600F0E3FB8346CBF1000B01200FFA9F
:104320008BFB00F0C1FB00F0BBFBAAF800B0BAF8B1
:10433000003043F34E03AAF80030BAF800301BB245
:104340005A336FDB2378042B92D1FEE72B785BBBCB
:1043500000F0A6FB237887E700F09EFB304600F0D4
:10436000A3FB3D2000F0BAFB304600F0B7FB8346CC
:10437000012000F099FB00F093FB00F08DFB30462C
:1043800000F092FBBD2000F0A9FB4BF00400C0B28E
:1043900000F0A4FB012000F087FB00F081FB8EE71A
:1043A0002B78002B3FF46CAF00F076FB002000F080
:1043B0007BFB012000F092FB002000F08FFB064603
:1043C000012000F071FB00F06BFB00F065FB0020AA
:1043D00000F06AFB812000F081FB06F0E30040F072
:1043E000040000F07BFB012000F05EFB00F058FBB6
:1043F00012E000F051FB304600F056FB272000F0A1
:104400006DFB304600F06AFB0646012000F04CFBD5
:1044100000F046FB330602D42678002EE9D00123B3
:10442000237023E7FFF7D0FADDE90423DDE9020179
:104430000096FFF72DFC07B0BDE8F08F17010020B4
:104440009E030020A30300205B0300205A030020EA
:10445000A00300209D030020A203002038B5002403
:104460002F4B3049304A1C703048314B314D2C7045
:1044700004700C7014701C7000F00EFB204600F0ED
:1044800013FB282000F02AFB204600F027FB0546FE
:10449000012000F009FB00F003FB6B071CD400F0C7
:1044A000FBFA002000F000FBA52000F017FB4020E5
:1044B00000F014FB012000F0F7FA00F0F1FA0320FD
:1044C000FFF7C8FA1C4B1B78052B00D138BD032021
:1044D000BDE83840FFF7BEBA00F0DEFA204600F033
:1044E000E3FA3D2000F0FAFA204600F0F7FA05461C
:1044F000012000F0D9FA00F0D3FA00F0CDFA2046FE
:1045000000F0D2FABD2000F0E9FA45F00400C0B294
:1045100000F0E4FA012000F0C7FA00F0C1FABEE7AB
:104520009D0300209E0300205B030020A3030020C6
:104530005A030020A203002017010020F8B5524CB6
:104540002378032B02D0052B00D0F8BD00F0A4FA8D
:10455000002000F0A9FA282000F0C0FA002000F0A6
:10456000BDFA0546012000F09FFA00F099FA6B07AA
:10457000EBD52378032B00F0848000F08DFA002027
:1045800000F092FA242000F0A9FA002000F0A6FA28
:104590000446012000F088FA644200F081FA3B4BA7
:1045A00024B21C801A883A4C42F34E021A801A88B0
:1045B0001A8000F071FA002000F076FA002000F076
:1045C0008DFA002000F08AFA207023780020422B18
:1045D0008EBF42232378DBB2237000F07FFA2D4A8E
:1045E0002D4B12781870002A38D02378022B3DD931
:1045F00023782A4E033BDBB20020337000F06EFAC2
:104600000246274B00201A7000F068FA254B264A14
:1046100000F0800100F040001170187033785BB139
:1046200000242546214F002000F058FA0134337849
:104630007855E5B2AB42F6D833783C2B04D800214C
:1046400033781A4ADBB2D154012000F02DFA00F081
:1046500027FABDE8F8400320FFF7FCB914491A789F
:1046600009789142C1D01B78FF2BBED000230120D6
:10467000237000F019FA00F013FABDE8F840FFF7D4
:10468000EDBEFFF7A1F978E717010020A003002095
:104690009E0300205D030020A30300209D03002053
:1046A000A20300205B0300205A03002060030020C7
:1046B0005C03002070B55A4D2B78042B3FD000F0DE
:1046C000EBF92B78032B3CD0052B564B42D0002422
:1046D0005549564A0C70564856491470564A04704B
:1046E0001C700C70147000F0D7F9204600F0DCF953
:1046F000282000F0F3F9204600F0F0F906460120EA
:1047000000F0D2F900F0CCF9730764D400F0C4F9DA
:10471000002000F0C9F9A52000F0E0F9402000F0E9
:10472000DDF9012000F0C0F900F0BAF90320FFF72D
:1047300091F92B78052B02D00320FFF78BF900208D
:1047400070BD384B1B7803F0FF0433B900F0A8F9B3
:10475000204670BD1A78002AB9D000F09DF90020DB
:1047600000F0A2F9012000F0B9F9002000F0B6F93C
:104770000446012000F098F900F092F900F08CF95D
:10478000002000F091F9812000F0A8F904F0E30086
:1047900040F0040000F0A2F9012000F085F900F0DB
:1047A0007FF912E000F078F9204600F07DF927202B
:1047B00000F094F9204600F091F90446012000F041
:1047C00073F900F06DF9220602D42C78002CE9D0A0
:1047D0000120287070BD00F05FF9204600F064F9F8
:1047E0003D2000F07BF9204600F078F906460120D4
:1047F00000F05AF900F054F900F04EF9204600F0AC
:1048000053F9BD2000F06AF946F00400C0B200F090
:1048100065F9012000F048F900F042F976E700BFA1
:10482000170100209E0300209D030020A20300200A
:10483000A30300205B0300205A03002070B5414D04
:1048400006462B78012B3CD000F026F9002000F022
:104850002BF9012000F042F9002000F03FF9044656
:10486000012000F021F900F01BF900F015F90020FB
:1048700000F01AF9812000F031F904F0E30040F073
:10488000040000F02BF9012000F00EF900F008F907
:1048900012E000F001F9204600F006F9272000F0B0
:1048A0001DF9204600F01AF90446012000F0FCF83A
:1048B00000F0F6F8230602D42C78002CE9D001236E
:1048C0002B70AEB100F0E8F8002000F0EDF8BE204B
:1048D00000F004F9741E06F10F0514F8010F00F042
:1048E000FDF8AC42F9D1012000F0DEF800F0D8F874
:1048F00000F0D2F8002000F0D7F83D2000F0EEF8EC
:10490000002000F0EBF80446012000F0CDF800F0A4
:10491000C7F800F0C1F8002000F0C6F8BD2000F094
:10492000DDF824F00100002E18BF40F00100C0B2F5
:1049300000F0D4F8012000F0B7F8BDE8704000F0B6
:10494000AFB800BF17010020014B188800B27047B4
:10495000A0030020014B1870704700BF5D030020CA
:10496000024B1B7803700248704700BF9D03002074
:104970006003002010B518B300F08EF8002000F09E
:1049800093F8812000F0AAF8042000F0A7F8012095
:1049900000F08AF800F084F800F07EF8002000F0C3
:1049A00083F8812000F09AF8442000F097F8012065
:1049B00000F07AF800F074F80522144B1A7010BD5C
:1049C000044600F069F8204600F06EF8812000F0FF
:1049D00085F8242000F082F8012000F065F800F04E
:1049E0005FF800F059F8204600F05EF8812000F0F2
:1049F00075F8042000F072F8012000F055F800F07E
:104A00004FF80122014B1A7010BD00BF17010020A2
:104A100008B500F041F8002000F046F88D2000F0C5
:104A20005DF8922000F05AF8012000F03DF800F007
:104A300037F800F031F8002000F036F88E2000F052
:104A40004DF8F52000F04AF8012000F02DF800F0B4
:104A500027F800F021F8002000F026F88F2000F061
:104A60003DF8202000F03AF8012000F01DF800F099
:104A700017F800F011F8002000F016F8AB2000F055
:104A80002DF81F2000F02AF8012000F00DF8BDE8F5
:104A9000084000F005B800BF0620FCF7A3B800BF2F
:104AA0000620FCF793B800BF20B101221021044872
:104AB000FCF70EBA024610210148FCF709BA00BF04
:104AC0000008014008B501210348FCF7FBF900305C
:104AD00018BF012008BD00BF000C01404FF47A73DD
:104AE00000B585B00DF10F028DF80F00009311464F
:104AF00001230648FDF720FB18B1002005B05DF842
:104B000004FB9DF80F0005B05DF804FBCC0300200A
:104B100008B5FBF7FBFF054B054A1B681288C01A56
:104B2000904294BF0020012008BD00BFA4030020D4
:104B3000A803002008B5034B1880FBF7E7FF024BE2
:104B4000186008BDA8030020A4030020F0B50121CF
:104B500001264FF48037002502244FF480324FF4B1
:104B6000E01395B00AA8CDE90A670C950E91CDE93E
:104B700011421393FCF728FF00B1FEE74FF4806366
:104B800000220F2602270890214604A8CDE906231B
:104B9000CDE90467FDF700F9034600B1FEE71022F6
:104BA000684603930092FDF7F5F9044600B1FEE76D
:104BB000FDF7CAF9084BA3FB00308009FCF720F889
:104BC0000420FCF735F8224621464FF0FF30FBF772
:104BD000C7FF15B0F0BD00BFD34D621010B51B4C20
:104BE000012220462021FCF773F9204601224021B2
:104BF000FCF76EF9204601228021FCF769F9C820F4
:104C0000FBF78AFF204600222021FCF761F92046AD
:104C100000224021FCF75CF9204600228021FCF7AD
:104C200057F9C820FBF778FF204601222021FCF726
:104C30004FF9204601224021FCF74AF92046BDE801
:104C4000104001228021FCF743B900BF000C014055
:104C50002DE9F04F9BB0FBF73BFFFFF777FF0022FA
:104C6000764B10219869174640F0200098619C69A6
:104C7000734804F020040794079C9C694FF00008D7
:104C800044F004049C619C694FF0020904F00404A0
:104C90000894089C9C690AAE44F008049C619B69D6
:104CA0004FF4807403F008030993099BFCF710F993
:104CB0000122E0216348FCF70BF910220123314661
:104CC0005F48CDE90A23CDE90C89FCF70DF80122F4
:104CD00000255D4B31465B48CDE90A230C97FCF774
:104CE00003F831465648CDE90A450C97FBF7FCFF1F
:104CF000E022012331465348CDE90A23CDE90C894E
:104D0000FBF7F2FF022331464E48CDE90A450C93EA
:104D10004FF48275FBF7E8FF4FF4007410210A226C
:104D20004A4BDFF84CC11846C3E90277C3E9047760
:104D3000C3E908779F62C3E900C5C3E90641DA62A7
:104D4000FDF754FB90B94FF4E1350C24404B414A38
:104D5000C3E90150C3E90300C3E9060018461A601D
:104D60005C61FDF739FC024608B1FEE7FEE73A4B0D
:104D70003A491846C3E904245D60C3E90222C3E945
:104D800006221960FDF728FC0446002855D100F0E2
:104D90005FFA224621460620FBF7E2FE0620FBF7DB
:104DA00015FFFFF71BFF642216212B20FFF768F881
:104DB0000120FFF7DFFDFFF72BFE2948FFF73EFD3F
:104DC0000120FFF7C7FD1F20FFF7EAF9FFF746FBB9
:104DD000DFF8A090234C244DDFF86880DFF898A01E
:104DE000224FFFF767FC002848D140F6B833A2886D
:104DF0009A42F6D194E80F00002785E80F00AA88B0
:104E00006B78013201336B70AA80A78001F0AAF899
:104E10004FF0640B8AFB0032C317C3EB62130BFB2A
:104E200013034FF4FA702B81FBF776FE3B4658468E
:104E300010220D49FFF7E4F9D2E7FEE70010024027
:104E400000080140000C014000001110CC030020BC
:104E50002404002000380140640400200048004081
:104E6000C8770008AC030020BC030020DC770008F2
:104E700000300140A40400201F85EB5100222021B6
:104E80004046FCF725F8FFF75FFDA9F800000DF19B
:104E90001B00FFF765FD9DF81B20002A5AD0531E0A
:104EA000022B40F2838001689308012B0A9135D0D0
:104EB0004168022B0B9131D08168032B0C912DD0CE
:104EC000C168042B0D9129D00169052B0E9125D0C5
:104ED0004169062B0F9121D08169072B10911DD0BC
:104EE000C169082B119119D0016A092B129115D0B3
:104EF000416A0A2B139111D0816A0B2B14910DD0AA
:104F0000C16A0C2B159109D0016B0D2B169105D0A0
:104F1000416B0E2B17911CBF836B189322F0030378
:104F20009A4217D010F803E0591C0DF1680C9C440C
:104F30008A420CF840EC0DDD10F801C002330DF18F
:104F4000680E71449A4201F840CC03DDC25C7344A0
:104F500003F8402C96E80F0084E80F00B9F9003000
:104F6000A288B4F90600CDE90432FBF743FA002227
:104F70000F4BFBF7D3FBB4F90CC0B4F90820B4F91C
:104F80000A30CDE90201CDF800C03946094801F0E8
:104F90001DF80848FBF7AAFC81B2064800F0A2F908
:104FA000012220214046FBF793FF1EE70023B9E7CB
:104FB00000005940A8040020FEE700BF294B00B5BF
:104FC0009A6983B042F001029A619A69032002F063
:104FD00001020092009ADA6942F08052DA61DB69DC
:104FE00003F080530193019BFBF7A8FD00226FF0B3
:104FF0000B001146FBF7B4FD00226FF00A001146CA
:10500000FBF7AEFD00226FF009001146FBF7A8FD8B
:1050100000226FF004001146FBF7A2FD00226FF0A2
:1050200003001146FBF79CFD00226FF001001146C2
:10503000FBF796FD00224FF0FF301146FBF790FD85
:10504000002205201146FBF78BFD0520FBF7BEFD76
:10505000054A536823F0E06343F00073536003B0E4
:105060005DF804FB00100240000001400268134B91
:105070009A4200D07047A02130B50225032403F5E1
:1050800060439A6987B042F480529A619B690C48E8
:1050900003F480530291019302A9019B03950594A7
:1050A0000025FBF721FE4024002302A90448CDE996
:1050B00002450493FBF718FE07B030BD00300140F5
:1050C0000008014030B503682E4A87B0934204D0EF
:1050D0002D4A93422BD007B030BD4FF4007102250A
:1050E00003242A4B2A489A6942F480429A619B69B8
:1050F000029103F48043009302A9009B0594039559
:105100000024FBF7F1FD00234FF4806202A9204840
:10511000CDE902230494FBF7E7FD22462146252032
:10512000FBF71EFD2520FBF751FD07B030BD4FF406
:10513000806102250324154B1648DA6942F4802267
:10514000DA61DB69029103F48023019302A9019BD8
:10515000059403950024FBF7C7FD00234FF400627C
:1051600002A90C48CDE902230494FBF7BDFD2246B9
:1051700021462720FBF7F4FC2720FBF727FD07B08B
:1051800030BD00BF00380140004800400010024020
:1051900000080140000C0140704700BFFEE700BF5F
:1051A000FEE700BFFEE700BFFEE700BF704700BF9D
:1051B000704700BF704700BF08B5FBF79BFCBDE818
:1051C0000840FBF743BD00BF704700BF08B5012092
:1051D000FBF784FEBDE80840FFF7B0B90148FCF7D3
:1051E0002BB800BFA01000200148FDF763BA00BF34
:1051F000240400200148FDF75DBA00BF64040020CC
:1052000030B44FF41F054FF000640E4B0E4A19687E
:105210000E4841F00101196059680A405A601A6845
:1052200022F0847222F480321A601A6822F48022FA
:105230001A605A6822F4FE025A609D60846030BC95
:10524000704700BF001002400000FFF800ED00E0D2
:1052500010B5094C002220460849FEF737F82046D1
:105260000749FEF749F820460649FDF7E9FF2046C1
:10527000BDE81040FEF748B8A80500203001002026
:105280000800002020010020002070470020704707
:1052900070B505460E46074C01462046FDF7E0FF77
:1052A00032682946044800F009FA2046FDF7F6FF67
:1052B000002070BDA8050020CC07002010B5064CCA
:1052C000002220460549FDF7C3FF20460449FDF7AB
:1052D000C7FF002010BD00BFA8050020B40C0020AF
:1052E000CC08002010B5094CD4F81832D3F8143289
:1052F0000BB1012010BD0A4601462046FDF7A8FF6C
:105300002046BDE81040FDF7B1BF00BFA805002052
:1053100002680E4B9A4200D07047002203F5DA3340
:1053200010B5DC6982B044F40004DC61DB6911462D
:1053300003F4000301931420019BFBF711FC1420DC
:1053400002B0BDE81040FBF741BC00BF005C00406C
:1053500000F22C41D0F85C04FDF7EEBF00EB4113E6
:10536000D3F83C22D0F85C04FEF714B800EB4113EC
:10537000DA6BD0F85C04FEF741B800BFD0F85C04EB
:10538000FEF7C2B810B504460121D0F85C04FEF760
:10539000A5F8D4F85C04BDE81040FEF77FB800BF64
:1053A00010B50446D0F85C04FEF79CF8A36923B15D
:1053B000024A136943F00603136110BD00ED00E0DB
:1053C000D0F85C04FEF798B8F8B50321044600262F
:1053D00002200027082500221F4BDFF884C0C3F8F5
:1053E0005C44C3E90201C4F820321846C3E90667E9
:1053F000C3E900C51A62FBF77DFD30BB002218230C
:105400001146D4F82002FCF7C5FA58230022802167
:10541000D4F82002FCF7BEFAC02300228121D4F880
:105420002002FCF7B7FA4FF4887300220121D4F868
:105430002002FCF7AFFAD4F820024FF48073002268
:105440008221FCF7A7FA0020F8BD4FF497710348BA
:10545000FFF7B2FDD2E700BFA0100020507800088F
:10546000005C004008B5D0F82002FBF7CDFE032811
:1054700096BF024B0220185C08BD00BF4C780008A4
:1054800010B51C46D0F8200213462246FCF7BAF9A4
:10549000032896BF014B0220185C10BD4C78000811
:1054A00008B5D0F82002FCF7D1F9032896BF024BCB
:1054B0000220185C08BD00BF4C78000808B5D0F881
:1054C0002002FCF719FA032896BF024B0220185C51
:1054D00008BD00BF4C78000808B5D0F82002FCF7E2
:1054E00035FA032896BF024B0220185C08BD00BFA6
:1054F0004C7800080A06D0F8203204D403EB41139C
:1055000093F82A02704701F07F0103EB411393F8EF
:105510002A00704708B5D0F82002FCF75FF903288D
:1055200096BF024B0220185C08BD00BF4C780008F3
:1055300008B5D0F82002FCF7C9F9032896BF024B42
:105540000220185C08BD00BF4C78000808B5D0F8F0
:105550002002FCF79DF9032896BF024B0220185C3D
:1055600008BD00BF4C78000808B5D0F82002FCF751
:10557000A5F908BD0048704700150020704700BF1E
:10558000704700BF122301480B8070474C01002078
:10559000042301480B8070476001002010B5044CC3
:1055A0000A4604482146FEF7A3F9204610BD00BF75
:1055B000201700209C78000810B5044C0A460448C7
:1055C0002146FEF795F9204610BD00BF20170020A8
:1055D000B078000810B5044C0A4604482146FEF78E
:1055E00087F9204610BD00BF20170020C8780008AA
:1055F00010B5044C0A4604482146FEF779F92046C6
:1056000010BD00BF201700208078000810B5044CA2
:105610000A4604482146FEF76BF9204610BD00BF3C
:10562000201700208C780008002103E00B4B5B580A
:10563000435004310A480B4B42189A42F6D30A4AA7
:1056400002E0002342F8043B084B9A42F9D3FFF7EB
:10565000D7FD00F00FF8FFF7FBFA7047407B00081A
:105660000000002034030020380300203C190020F3
:10567000FEE7000070B500260C4D0D4C641BA41015
:10568000A64209D102F08CF800260A4D0A4C641B90
:10569000A410A64205D170BD55F8043B98470136C9
:1056A000EEE755F8043B98470136F2E7387B0008EF
:1056B000387B0008387B00083C7B00080A44914294
:1056C00000F1FF3300D1704710B511F8014B914242
:1056D00003F8014FF9D110BD03460244934200D1B3
:1056E000704703F8011BF9E7002B2DE9F0471E4630
:1056F000BBBF03F100431E4600232D2388B0149F37
:10570000144627F02007129A462F109DDDF84CA072
:10571000137004D0452F00D10135022300E003238C
:1057200007AA049206AACDE902A2CDE900352246D5
:10573000334600F0F9FC472F804602D1119BDB076E
:1057400022D5462F08EB050911D198F80030302BEF
:105750000AD10022002320463146FBF725F918B96B
:10576000C5F10105CAF80050DAF80030994400226A
:10577000002320463146FBF717F908B1CDF81C90FD
:105780003022079B4B4508D34046079B159AA3EB55
:105790000803136008B0BDE8F087591C07911A7020
:1057A000EFE7F7B50029B6BF2D232B23494209297E
:1057B0000270437022DD0DF107031F460A2691FB9C
:1057C000F6F206FB1214632904F1300403F1FF35ED
:1057D00003F8014C0ADC303205F8012C023B821C34
:1057E000BB42144605D3201A03B0F0BD2B46114628
:1057F000E5E713F8011B02F8011BF1E73023194418
:105800008370041DC170EEE72DE9F04F91B00C4696
:105810001A9F93461E46054601F036FA036818465D
:105820000993FBF763F800230E933B680A90073354
:1058300023F0070303F1080294F81880D4F800A0BD
:105840003A60D3E90023C4E91223D4E9127929F09C
:1058500000430B934FF0FF32A84B38460B99FBF7F0
:10586000D5F868BB4FF0FF32A44B38460B99FBF7D5
:10587000AFF828BB0022002338464946FBF79EF8C4
:1058800010B12D2384F843309D4F9E4BB8F1470F44
:1058900088BF1F4603234FF0000923612AF0040349
:1058A000236000965B460FAA2146284600F0CEF9F9
:1058B000013040F093804FF0FF3011B0BDE8F08F21
:1058C0003A464B4638464946FBF7A0F860B10022FD
:1058D000002338464946FBF771F810B12D2384F8B0
:1058E0004330894F894BD1E7636808F0DF015A1CC8
:1058F00042D106236360002206920EAACDE90482FB
:105900000DAA4AF4806303920DF13302CDE901320E
:10591000236063683A46009328464B460B91FFF795
:10592000E3FE0B99074647290D9908D1C81C02DBF5
:105930006368994240DDA8F102085FFA88F8B8F17F
:10594000650F1FD80139424604F150000D91FFF751
:1059500028FF0E9A81461318012A236102DC22686F
:10596000D20701D5013323619DF83330002B98D045
:105970002D2384F8433094E74729BCD1002BBAD1BA
:105980000123B7E7B8F1660F18D1002963680BDD72
:10599000216113B92268D00702D501330B4423617A
:1059A000A1654FF00009DFE713B92268D20701D5DE
:1059B0000233F4E70123F2E74FF067080E9B9942A8
:1059C00005DB23682161D807EAD54B1CE7E70029EE
:1059D000CCBF0122C1F102021344E0E723685A055B
:1059E00007D423693A4659462846B047013029D1A1
:1059F00061E7B8F1650F40F2D880D4E912010022C6
:105A00000023FAF7D1FF88B30123414A59462846BB
:105A1000B04701303FF44FAFDDE90D239A4202DB7E
:105A20002368D8070ED5DDE9092359462846B04733
:105A300001303FF440AF002704F11A080E9B013BF0
:105A4000BB4209DC23689F0700F1FB80E0680F9BE5
:105A50009842B8BF184630E70123424659462846C7
:105A6000B04701303FF427AF0137E7E70D9B002B2C
:105A70002BDC0123264A59462846B04701303FF423
:105A80001AAFDDE90D23134302D12368D907D9D515
:105A9000DDE9092359462846B04701303FF40BAFF2
:105AA0004FF0000804F11A090D9B5B42434501DCED
:105AB0000E9B97E701234A4659462846B0470130D6
:105AC0003FF4F9AE08F10108EEE70E9AA36D9A4291
:105AD000A8BF1A46002A904607DD134659463A46A3
