:020000040800F2
:1000000000500020953600081D32000821320008FB
:1000100025320008293200082D32000800000000B7
:100020000000000000000000000000003132000865
:100030003532000800000000393200083D32000867
:10004000DD360008DD360008DD360008DD36000844
:10005000DD3600084D32000851320008DD36000858
:10006000DD360008DD360008DD360008DD36000824
:10007000DD360008DD360008DD360008DD36000814
:10008000DD360008DD360008DD360008DD36000804
:1000900059320008DD360008DD360008DD3600087C
:1000A000DD360008DD360008DD360008DD360008E4
:1000B000DD360008DD360008DD360008DD360008D4
:1000C000DD360008DD360008DD360008DD360008C4
:1000D000DD36000865320008DD36000871320008A0
:1000E000DD360008DD360008DD36000800000000BF
:1000F0000000000000000000000000000000000000
:0C01000000000000000000005FF808F1A3
:10010C0010B5054C237833B9044B13B10448AFF345
:10011C0000800123237010BDC801002000000000E6
:10012C00943F000808B5034B1BB103490348AFF3D8
:10013C00008008BD00000000CC010020943F0008A6
:10014C00034613F8012B002AFBD1181A013870470B
:10015C0038B54FF47A730D490D4A09781268B3FB20
:10016C00F1F30546B2FBF3F000F0A0F808B90F2D3F
:10017C0001D9012038BD0446024629464FF0FF3014
:10018C0000F052F8034B20461D6038BD00000020E3
:10019C001801002004000020074A08B5136803204A
:1001AC0043F01003136000F02DF80020FFF7D0FF90
:1001BC0002F040FF002008BD00200240034A044B1F
:1001CC0011681B780B441360704700BFE4010020DA
:1001DC0000000020014B1868704700BFE4010020AC
:1001EC0038B50446FFF7F6FF631C054602D0044BF6
:1001FC001B781C44FFF7EEFF401BA042FAD338BD1E
:10020C00000000204FF6FF01064A0002D36800F4FC
:10021C00E0600B40184340F0BF6040F40030D06009
:10022C00704700BF00ED00E0184B30B4DC68C4F33D
:10023C000224C4F10705042D04F1040328BF04258E
:10024C00062B18D94FF0FF33033CA34022EA0302DC
:10025C004FF0FF33AB4021EA0303A34013431B01D0
:10026C000028DBB20ADB00F1604000F5614080F849
:10027C00003330BC704700221446E9E7044A00F012
:10028C000F000244137630BC704700BF00ED00E055
:10029C00FCEC00E0012300F01F01034A40098B40F5
:1002AC0042F82030704700BF00E100E00138B0F1A7
:1002BC00807F0DD230B4F02500220721054B064C6F
:1002CC00586084F82350104630BC9A60196070470F
:1002DC000120704710E000E000ED00E0044A042823
:1002EC0013680CBF43F0040323F00403136070473E
:1002FC0010E000E0704700BF08B5FFF7FBFF08BD3A
:10030C0090F82130022B04D004220123826318467A
:10031C007047036810B51A681B4922F00E021A6068
:10032C001A688B4222F001021A601FD0174A9342BE
:10033C001AD0143293421ED0143293421ED014326F
:10034C0093421ED0143293420CBF4FF480134FF0E3
:10035C0080734FF480710E4C426B636001843AB130
:10036C0090470023184610BD1023F2E70123F0E755
:10037C001346184610BD4FF48073EAE74FF48053D0
:10038C00E7E74FF48033E4E7080002401C0002402A
:10039C00000002402DE9F04F4FF0000883B04346B7
:1003AC006A4EDFF8BCE1DFF8BCC102E00133102B70
:1003BC007DD001220C689A4002EA0405AA42F5D1CC
:1003CC004C68122C00F0A98000F28180022C00F005
:1003DC00A0806FD9032C00F09980112C02D1CA682F
:1003EC0002F10408FF2D6CD8824602689C004FF085
:1003FC000F0909FA04FB22EA0B0208FA04F422435F
:10040C00CAF80020D1F804A01AF0805FCED0504F6B
:10041C0023F00304BA6904F1804442F00102BA618A
:10042C00BA6904F5803402F00102019203F0030B67
:10043C00019A4FEA8B0BA268A7F5843709FA0BF9DE
:10044C00B84222EA090211D007F58067B84268D099
:10045C00404FB84273D0404FB8420CBF4FF0030925
:10046C004FF0040909FA0BFB42EA0B02A260326856
:10047C001AF4803F14BF2A43AA43326072681AF4FC
:10048C00003F14BF2A43AA437260B2681AF4801F5B
:10049C0014BF2A43AA43B260F4681AF4001F03F194
:1004AC00010314BF2C43AC43102BF46081D103B077
:1004BC00BDE8F08FC4B1012C94D1FF2DD1F80C8084
:1004CC0092D99C004268203C00F1040A8FE77445E5
:1004DC000AD00ED9644507D0204FBC4204D0DFF8B7
:1004EC0088904C457FF47EAF8C680CBB4FF00408B1
:1004FC0078E7DFF878904C45F6D009F580394C4513
:10050C007FF470AF8C68002CF0D011E04FF0000835
:10051C0068E7CA6802F1080864E7CA6802F10C08C7
:10052C0060E74FF0010909FA0BFB42EA0B029DE769
:10053C00012C0CBF026142614FF0080852E74FF0EA
:10054C00020909FA0BFB42EA0B028FE70004014097
:10055C000010024000100140001401400000321055
:10056C0000002110000031100000221000001110BA
:10057C008368194214BF01200020704702B9090496
:10058C0001617047704700BF044A5169014200D1B4
:10059C00704708B55061FFF7F5FF08BD0004014036
:1005AC00002800F084812DE9F04F90F8293487B0B1
:1005BC00044603F0FF02002B00F074814FF0030996
:1005CC0026466D4684F82994206801F003FB56F802
:1005DC00107B04F1040A0FCE0FC5336838462B602C
:1005EC009AE80E0001F0E4FA0021206801F0FCFA10
:1005FC004FF48073238540F20113A4F848304FF474
:10060C008173A4F8683040F20313A4F888304FF4D7
:10061C008273A4F8A83040F20513A4F8C8304FF444
:10062C0083730025A4F8E83040F2071384F82B50AC
:10063C00C4E90E55256484F84B50C4E9165525665B
:10064C0084F86B50C4E91E55C4F8805084F88B5064
:10065C00C4E92655C4F8A05084F8AB50C4E92E5513
:10066C00C4F8C05084F8CB50C4E93655C4F8E050F7
:10067C0084F8EB50C4E93E55A4F808314FF4847368
:10068C00A4F8283140F20913A4F848314FF48573CB
:10069C00A4F8683140F20B13A4F888314FF4867338
:1006AC00A4F8A83140F20D13C4F8005184F80B5192
:1006BC00C4E94655C4F8205184F82B51C4E94E5571
:1006CC00C4F8405184F84B51C4E95655C4F86051F4
:1006DC0084F86B51C4E95E55C4F8805184F88B5191
:1006EC00C4E96655C4F8A05184F8AB51C4E96E5501
:1006FC00C4F8C051A4F8C831A4F88892A4F8949016
:10070C004FF002094FF00108A4F86892A4F8749015
:10071C004FF487734FF00409A4F8E83184F8CB51F7
:10072C00C4E97655C4F8E05184F8EB51C4E97E5520
:10073C00C4F80052A4F82852A58684F82B52C4E9B8
:10074C008E55C4F8405284F84B52C4E99655C4F8FF
:10075C00605284F86B52C4E99E55C4F8805284F8F8
:10076C008B52C4E9A655A4F84882A4F85480C4F866
:10077C00A052A4F8A892A4F8B4904FF00509A4F8DC
:10078C00C892A4F8D4904FF00609A4F8E892A4F803
:10079C00F4904FF007094FF0090B4FF00A0E0B20A5
:1007AC000C210D222746A4F80893A4F814914FF0BD
:1007BC000E034FF00809EC4684F8AB52C4E9AE5571
:1007CC00C4F8C05284F8CB52C4E9B655C4F8E05210
:1007DC0084F8EB52C4E9BE55C4F8005384F80B53AB
:1007EC00C4E9C655C4F8205384F82B53C4E9CE553C
:1007FC00C4F84053A4F82893A4F83491A4F848B34F
:10080C00A4F854B184F84B53A4F868E3A4F874E149
:10081C00A4F88803A4F89401A4F8A813A4F8B411BC
:10082C00A4F8C823A4F8D421A4F8E833A4F8F4312C
:10083C00C4E9D655C4F8605384F86B53C4E9DE554B
:10084C00C4F8805384F88B53C4E9E655C4F8A0531C
:10085C0084F8AB53C4E9EE55C4F8C05384F8CB53B9
:10086C00C4E9F655C4F8E05384F8EB53C4E9FE55DB
:10087C00C4F8005457F810EB0FCFACE80F003368F6
:10088C007046CCF800309AE80E0001F0AFF984F80D
:10089C002450206884F8298401F072FD284607B0A2
:1008AC00BDE8F08F80F8282402F062FD86E6012076
:1008BC00704700BF90F82834012B10D0012110B5DF
:1008CC00044680F8281402F08BFE206801F056FDD7
:1008DC00206801F075F9002084F8280410BD02206E
:1008EC00704700BF2DE9F04F044683B0006801F05B
:1008FC0049FD050400F1B5802268104601F042FD67
:10090C00460500F19080206801F03CFD10F4804F0A
:10091C00206807D0B0F8443023F480431B041B0C30
:10092C00A0F8443001F02EFD10F4005F20681ED1B9
:10093C0001F028FDC50426D4206801F023FD000534
:10094C0042D4206801F01EFD82055FD4206801F0BE
:10095C0019FDC30508D52268B2F8443023F480731E
:10096C001B041B0CA2F8443003B0BDE8F08FB0F8A8
:10097C00443023F400531B041B0CA0F8443001F04A
:10098C0001FDC504D8D522682046B2F8403023F0CA
:10099C0004031B041B0CA2F84030B2F8403023F0C7
:1009AC0008031B041B0CA2F8403002F039FD206830
:1009BC00B0F8443023F480531B041B0CA0F84430D3
:1009CC0001F0E0FC0005BCD52368B3F840201846C4
:1009DC0042F00802A3F84020B3F8442022F400624D
:1009EC001204120CA3F84420B3F8402042F0040285
:1009FC00A3F8402001F0C6FCC104A2D4204602F0AA
:100A0C00FFFC206801F0BEFC82059FD522682046C1
:100A1C00B2F8443023F400731B041B0CA2F84430CE
:100A2C0002F0DCFC92E722682046B2F8443023F452
:100A3C0080631B041B0CA2F8443002F0D3FC94F826
:100A4C002834012B3FF45FAF0025012384F8245098
:100A5C0084F828342946206801F08AFC84F828544C
:100A6C0051E700232268ADF80430ADF80630B2F837
:100A7C0044309BB21804ADF804307FF53EAFDFF87C
:100A8C00FC93DFF8FCA3DFF8FCB31BE0BDF804100B
:100A9C00138811F0100100F098809BB2ADF806306D
:100AAC00BDF80630190500F1EF80BDF806301B04C7
:100ABC0000F12A81B2F844309BB21F04ADF8043027
:100ACC007FF51BAFBDF8046016F00F06DED032F8D0
:100ADC0026309BB2ADF80630BDF8063019043BD475
:100AEC00BDF806301B06E5D532F82630750109EA4B
:100AFC00030322F82630611991F8323002F5806038
:100B0C00002B40F0A180B2F8503091F8287003EB24
:100B1C00C703023350F81330C3F309034B64002BA3
:100B2C0040F094812544B2F8503095F82860E96B78
:100B3C0003EBC603023350F813302E6CC3F30903D6
:100B4C0019446B64E963002E66D195F82810204691
:100B5C0002F03CFC2268ADE740F68F7332F82610A9
:100B6C0075010B4022F8263004EB050898F8323258
:100B7C0002F58060002B40F0A780B2F8503098F856
:100B8C00281203EBC103063350F81370C7F309079F
:100B9C00002F40F02B812544D5F84432D5E98F2025
:100BAC003B443A44C5F84432C5F83C22002800F0D6
:100BBC003581D5F8383295F828129F4280F0318172
:100BCC00204602F0FBFB22688AE709EA0303138044
:100BDC00B2F8500094F82850E36B00EBC50002EB20
:100BEC004002D2F804242046C2F309021344E36302
:100BFC00626402F0EBFB94F824301BB3236C226884
:100C0C00002B7FF457AF94F8241041F08001A2F828
:100C1C004C1084F824304DE74FF0000C012795F868
:100C2C002850104605F07F056A01A3182832C3E945
:100C3C000F1683F82850A118C3F844C083F8297004
:100C4C0001F020FA226835E791F8283004EB4616BB
:100C5C0032F82370DB0017F0400FB2F850703B44B1
:100C6C0000F08D80023350F81330C3F30903736422
:100C7C00002B00F08C801046CA8DC96B01F088FBEC
:100C8C00226802F5806082E0B2F8503094F82812A5
:100C9C00104603EBC10302EB4302D2F80C3404F20E
:100CAC002C41C3F30903B4F82C22C4F8443201F0EC
:100CBC007DFB40F68F732268204611880B40138011
:100CCC0002F076FB2268F5E698F8283232F82370A9
:100CDC0002EB830117F4804FB2F850704FEAC30354
:100CEC003B4463D1063350F81370C7F30907002F48
:100CFC0040F0BE8040F60F730A88134043F4004363
:100D0C0043F0C0030B8046E740F68F7311880B400D
:100D1C001380B2F8503094F8281203EBC10302EBA5
:100D2C004303D3F80C34C3F30903C4F84432002B47
:100D3C0065D10021204602F041FB2268D4F838121C
:100D4C00B2F850303E2902F5806503F1060342D912
:100D5C00C1F34F10CF0604BF00F1FF3080B24BEA55
:100D6C00802080B245F8130013880AEA030383F449
:100D7C00405343F4004343F0800313809AE6063358
:100D8C0050F81330C3F309037364002B67D140F69A
:100D9C000F73611991F8281032F82160334043F435
:100DAC00404343F0800322F82130BBE6023350F875
:100DBC001370C7F30907002F9CD03B461046B8F8B8
:100DCC002E22D8F83C1201F0F1FA98F8283221685A
:100DDC0001EB83018EE7C1F34F00CE0744BF013016
:100DEC0080B2800280B245F81300BDE710463B4646
:100DFC00B8F82C22D8F83C1201F0D8FACBE6104601
:100E0C00D4F83C12B4F82C2201F0D0FAD4F83C32CD
:100E1C00D4F844221344C4F83C328AE795F82812DB
:100E2C00CEE6002701F07F014D01631905F50A7527
:100E3C00C3E98F2083F82812C3F84472611983F830
:100E4C002972206801F01EF9226849E610468A8D45
:100E5C00C96B01F09DFA226802F5806062E61046CB
:100E6C000A8EC96B01F094FA226802F580608EE755
:100E7C0010463B46B8F83022A3E700BF0F8FFFFFA8
:100E8C008FBFFFFF0080FFFF90F82824012A0DD0B0
:100E9C0010B50446012284F8241080F82824006838
:100EAC0001F066FA002084F8280410BD0220704777
:100EBC0038B54CB2002C01F07F05B5BF00EB4511E5
:100ECC0000EB4111283101F50A71E40F4C700D70E3
:100EDC00CB7090F828340A61012B0AD00123044608
:100EEC0080F82834006800F09BFE002084F8280469
:100EFC0038BD022038BD00BF4BB2002B01F07F0281
:100F0C00B5BF00EB421100EB4111283101F50A711C
:100F1C00DB0F4B700A7090F82834012B0BD0012397
:100F2C0010B5044680F82834006800F0E3FF002078
:100F3C0084F8280410BD0220704700BF70B500264D
:100F4C0001F07F014D01441905F50A7584F828124A
:100F5C00C4E98F2341190068C4F8446284F82962FB
:100F6C0001F090F8304670BD01F00F0100EB41111B
:100F7C00B1F84402704700BFF8B50026012701F014
:100F8C007F014D014419283584F82810C4E90F233A
:100F9C004119006884F82970666401F073F83046D2
:100FAC00F8BD00BF012238B54BB2002B01F07F0514
:100FBC00B5BF00EB451100EB4111283101F50A7169
:100FCC00DB0F4B700D708A7090F82834934210D060
:100FDC00044680F82824006801F04EF91DB1002069
:100FEC0084F8280438BD04F22C41206801F0CEF9B5
:100FFC00F5E7022038BD00BF38B500254BB2002BF9
:10100C0001F07F02B5BF00EB421100EB411128311A
:10101C0001F50A71DB0F4B700A708D7090F8283453
:10102C00012B0AD00123044680F82834006801F013
:10103C0055F984F82854284638BD022038BD00BF25
:10104C0011F0800F11D001F07F0100EB411028301E
:10105C0099B21AB9818082720020704701221B0C50
:10106C000381C18082720020704700EB411000F5B3
:10107C000A70EDE72DE9F041036882B0DD07044604
:10108C0030D5AB494A6802F00C02042A00F0DA8031
:10109C004A6802F00C02082A00F0D0806368B3F5AD
:1010AC00803F00F00F81002B00F02781B3F5A02FBB
:1010BC0000F0B5819E4B1A6822F480321A601A68CF
:1010CC0022F480221A60FFF785F8994D064605E058
:1010DC00FFF780F8801B642800F20B812B689A03C1
:1010EC00F6D523689F0728D5914A516811F00C0F4B
:1010FC0000F0B680516801F00C01082900F0AC80BA
:10110C002369002B00F0418101228A4B884D1A6023
:10111C00FFF760F8064605E0FFF75CF8801B022835
:10112C0000F2E7802B689807F6D52B68626923F0EC
:10113C00F80343EAC2032B6023681A0722D5A3697C
:10114C00002B00F0988001227B4B794D1A60FFF741
:10115C0041F8064605E0FFF73DF8801B022800F237
:10116C00C8806B6A9B07F6D5744B754A1B68A2FB4B
:10117C0003235B0A019300BF019B5A1E0192002BB3
:10118C00F9D123685D0739D5694BDA69D00040F194
:10119C00828000256B4B1A68D10540F19980E36879
:1011AC00012B0FD0002B00F0D180052B604B1A6A5D
:1011BC0000F0FC8022F001021A621A6A22F004028A
:1011CC001A6204E05A4A136A43F001031362FFF7F0
:1011DC0001F8574E804641F2883706E0FEF7FAFFD9
:1011EC00A0EB0800B84200F28480336A9B07F5D567
:1011FC0025B14F4AD36923F08053D361E369CBB156
:10120C004B4D6A6802F00C02082A30D0022B4FF0CA
:10121C0000024D4B00F0D2801A60FEF7DBFF2C462B
:10122C00054604E0FEF7D6FF401B022861D8236870
:10123C009B01F7D4002002B0BDE8F0814A68D003CE
:10124C007FF52CAF3A4A126891037FF54BAF626879
:10125C00002A7FF447AF0AE05268D6033FF550AF3F
:10126C00334A1268950721D52269012A1ED0012024
:10127C0002B0BDE8F081304A2D4D1360FEF7AAFF95
:10128C00064604E0FEF7A6FF801B022831D86B6AE5
:10129C009F07F7D475E7DA69012542F08052DA61CD
:1012AC00DB6903F080530093009B73E7204960696E
:1012BC000A6822F0F80242EAC0020A601A077FF5B7
:1012CC0061AF3CE71A4A136843F480331360FAE6C3
:1012DC001A681E4642F480721A60FEF77BFF0746BE
:1012EC003368DA053FF55BAFFEF774FFC01B64286B
:1012FC00F6D9032002B0BDE8F08103F1804303F579
:10130C0004331A681D4622F480321A601A6822F4DB
:10131C0080221A60FEF75EFF064604E0FEF75AFFD5
:10132C00801B6428E5D82B689B03F7D4D9E600BF53
:10133C00001002400000424280044242180100208A
:10134C00D34D6210007000406000424203F18043B4
:10135C0003F504331A6A1E4622F001021A621A6A55
:10136C0041F2883822F004021A62FEF733FF074676
:10137C0004E0FEF72FFFC01B4045BAD8336A98072C
:10138C00F7D4002D3FF43AAF33E72B4A2B4D1360C3
:10139C00FEF720FF064604E0FEF71CFF801B022828
:1013AC00A7D82B689907F7D42368C6E642F0040245
:1013BC001A621A6A42F001021A6208E71A60FEF712
:1013CC0009FF064604E0FEF705FF801B022890D8B3
:1013DC002B689901F7D4226AB2F5803F05D16B686E
:1013EC00A16823F400330B436B600125134B606A37
:1013FC005968024321F4741111480A435A6005607C
:10140C001C46FEF7E7FE054605E0FEF7E3FE401B33
:10141C0002283FF66EAF23689A01F6D50AE703F16E
:10142C008043A3F53C331A6842F480221A601A6890
:10143C0042F480321A6046E600004242001002403C
:10144C0060004242644A136803F007038B420BD2DC
:10145C00136823F007030B431360136803F00703AF
:10146C008B4201D0012070472DE9F041036886B012
:10147C009A0706D5594C8568626822F0F0022A4317
:10148C006260DB0705460C4624D54268534B012AA3
:10149C001B6800F09480022A00F08D80980729D5F3
:1014AC004E4E41F28838736823F003031343736084
:1014BC00FEF790FE6B680746012B6BD0022B05D113
:1014CC0073E0FEF787FEC01B40457CD8736813F0B1
:1014DC000C0FF6D1404A136803F00703A3420DD951
:1014EC00136823F0070323431360136803F0070307
:1014FC00A34203D0012006B0BDE8F0812B68590748
:10150C0006D53649E8684A6822F4E06202434A602C
:10151C001A0707D5314A2969536823F4605343EA03
:10152C00C103536040F201222D4B06ACADF80420F0
:10153C000FCB04E90F0029494A6802F00C03082B71
:10154C0010D0284B254A284852682849C2F3031268
:10155C00825C0020D3400B60FEF7FAFD002006B041
:10156C00BDE8F081C2F38343234413F8100CD3037A
:10157C002DD54A681B4BC2F3404203FB00F32244B7
:10158C0012F8142CB3FBF2F3DCE7FEF723FEC01BBE
:10159C00404518D8736803F00C03042BF5D199E778
:1015AC00FEF718FEC01B40450DD8736803F00C0302
:1015BC00082BF5D18EE79E013FF572AF9AE79F039A
:1015CC003FF56EAF96E7032006B0BDE8F081084BFF
:1015DC0003FB00F3B6E700BF0020024000100240FE
:1015EC00AC3F000800127A00D03F00081801002020
:1015FC0000093D00014B1868704700BF180100201E
:10160C00044B05495B68054AC3F30223CB5C1068A5
:10161C00D840704700100240E03F0008180100203D
:10162C00044B05495B68054AC3F3C223CB5C1068C5
:10163C00D840704700100240E03F0008180100201D
:10164C002DE9F0410446006882B0C50727D53C4B14
:10165C00DA69D1003AD53B4B00251A68D20543D53F
:10166C00374960680A6A12F440720FD000F4407374
:10167C0093420BD0012700260B6A334A23F44070A7
:10168C00176016600862D80749D460682C4A136A40
:10169C0023F44073034313622068002D38D1830771
:1016AC0006D5274AA168536823F440430B43536083
:1016BC0010F0100007D00020214AE168536823F491
:1016CC0080030B43536002B0BDE8F081DA69012559
:1016DC0042F08052DA61DB6903F080530193019B85
:1016EC00184B1A68D205BBD41A681E4642F4807295
:1016FC001A60FEF76FFD07463368DB05B0D4FEF7C2
:10170C0069FDC01B6428F7D9032002B0BDE8F08145
:10171C00D36923F08053D3618307C9D5C1E70E4643
:10172C00FEF758FD41F288378046336A9A07ACD4ED
:10173C00FEF750FDA0EB0800B842F6D9E4E700BF75
:10174C00001002400070004040044242002839D092
:10175C00F8B5002390F851200446836272B31A4600
:10176C00D4E90136022700210125E06833432669BC
:10177C00034360693343E66903433343206AA66934
:10178C0084F851700343276806F400700343134335
:10179C003A68606A22F04002360C3A6006F00406A1
:1017AC003B60E36A06437E603B61FB69084623F4B9
:1017BC000063FB61616584F85150F8BD01F092FC47
:1017CC00A26ACDE7012070472DE9F843044603686F
:1017DC00C0681969A26821F4405101431961D968A4
:1017EC00D4E9045021F4B0512A4321F00C010243F6
:1017FC000A43DA605A69A0694D4922F440720243E7
:10180C008B425A6155D0FFF7FBFE636800EB8000FA
:10181C0000EB80009B00B0FBF3F3464F4FF06408E5
:10182C00A7FB03235B091D01FFF7EAFE666800EBCB
:10183C00800000EB8000B600B0FBF6F6FFF7E0FE90
:10184C00626800EB8000930000EB8000B0FBF3F3C8
:10185C00A7FB03235B0908FB13631B013233A7FBB4
:10186C0003235B0903F0F006FFF7CAFE626800EB86
:10187C00800000EB80009300B0FBF3F9FFF7C0FE93
:10188C00626800EB8000930000EB8000B0FBF3F388
:10189C00A7FB03235B0908FB13931B013233A7FB44
:1018AC000323C3F34313334322682B449360BDE8F3
:1018BC00F883FFF7B5FE636800EB800000EB800057
:1018CC009B00B0FBF3F31B4F4FF06408A7FB032303
:1018DC005B091D01FFF7A4FE666800EB800000EBBE
:1018EC008000B600B0FBF6F6FFF79AFE626800EBDC
:1018FC008000930000EB8000B0FBF3F3A7FB032305
:10190C005B0908FB13631B013233A7FB03235B0941
:10191C0003F0F006FFF784FE626800EB8000930092
:10192C0000EB8000B0FBF3F9FFF77AFEA8E700BFED
:10193C00003801401F85EB5160B338B590F8393051
:10194C00044603F0FF0203B32423226884F83930E1
:10195C00D368204623F40053D360FFF735FF0025EE
:10196C002021236828461A6922F490421A615A6988
:10197C0022F02A025A61DA6842F40052DA60E56316
:10198C0084F8391084F83A1038BD80F8382001F00A
:10199C00D5FBD9E701207047704700BF704700BFE7
:1019AC0010B584680169B4F5805F836A02680ED053
:1019BC005C1C5268846239B91A70C38D013B9BB2AE
:1019CC00C38563B1002010BD02F07F02F4E75268BA
:1019DC00C9B9C2F3080223F8022B8362EDE7202475
:1019EC000268D16821F02001D160D16821F48071A6
:1019FC00D160516921F00101516180F83A40FFF743
:101A0C00CDFF002010BDD2B223F8012B8362D4E7A6
:101A1C00704700BF036870B51A6804461607DD6886
:101A2C0059690CD1960601D5A9064BD4160601D5D9
:101A3C0028064FD4510601D56A0667D470BD01F053
:101A4C00010105F490700843F0D0D60705D5E805E0
:101A5C0003D5E06B40F00100E063560702F0020092
:101A6C0029D561B1E16B02F0080641F00201E16396
:101A7C0018B1E16B41F00401E163002E55D1E16B2B
:101A8C000029DBD0900609D5A90607D594F83A2091
:101A9C00222A03D12046FFF783FF23685A69E56B9E
:101AAC0002F0400205F00805154343D12046FFF72C
:101ABC00AFFFE56370BD002833D00029DFD002F002
:101ACC000806D6E790F83A30222BB7D1BDE8704023
:101ADC00FFF766BF94F83920212AAFD1A168226A9A
:101AEC00B1F5805F4BD0511C216212785A60E28CA8
:101AFC00013A92B2E284002AA0D1DA6822F0800284
:101B0C00DA60DA6842F04002DA6070BD2021DA68EF
:101B1C00204622F04002DA6084F83910FFF73CFFCF
:101B2C0070BD1607ABD50029A9D0E16B41F00801B7
:101B3C00E163A4E72021DA6822F49072DA605A6932
:101B4C0022F001025A6184F83A105A69520612D5F1
:101B5C005A69616B22F040025A6161B10E4B084622
:101B6C004B63FEF7CDFB00283FF468AF606BBDE81C
:101B7C007040436B18472046FFF74AFF70BD118831
:101B8C002069C1F30801596010B902322262AEE734
:101B9C0001322262ABE700BFA91B0008002208B586
:101BAC00436ADA851846DA84FFF732FF08BD00BFB6
:101BBC0084B001A880E80E0004B00020704700BF7C
:101BCC000246B0F84030002043F43F43A2F84030C6
:101BDC00704700BF44F2FF230246B0F840100020CB
:101BEC000B40A2F8403070470020704784B070B4AE
:101BFC00044601250020A4F84050A4F84000A4F8A5
:101C0C004400A4F85000B4F8406004AD46F43F46DC
:101C1C00A4F8406085E80E0070BC04B0704700BFAB
:101C2C0070B40A78CB7800EB8204032B0ED8DFE873
:101C3C0003F002BAB0A430F82240AA4B234043F47C
:101C4C00007320F822300A7800EB820440F60F75FE
:101C5C00238800F580662B40134343F4004343F084
:101C6C00800323808B7A6BBB8A880B784C78520864
:101C7C005200DB00002C00F0DF80B0F85040234411
:101C8C0046F813200B7830F8234000EB83026406EF
:101C9C000BD530F82320154045F4004545F0C00520
:101CAC0020F823500A7800EB820211888E4B00201A
:101CBC0070BC0B4083F0200343F4004343F08003DB
:101CCC001380704740F60F630A7830F822402340A7
:101CDC0043F4014343F0800320F82230CB88B0F862
:101CEC0050200C785B0802EBC4025B0046F8123003
:101CFC00B0F850300A890C780433520803EBC40353
:101D0C00520046F813200A784B7830F82240002B0A
:101D1C0055D1660400EB82030BD530F822301D4000
:101D2C0045F4404545F0800520F822500B7800EB37
:101D3C0083031A88550600F1C88040F60F7248F2EA
:101D4C0080041D882A4042F4004242F0C0021A80EE
:101D5C000A78664B30F822502B4083F440532343CF
:101D6C0020F822300A78604B30F822100B401C43CC
:101D7C0020F82240002070BC704730F82240594BAC
:101D8C00234043F4C06320F822300A7800EB82042D
:101D9C005CE730F82240534B234020F822300A787D
:101DAC0000EB820452E730F822404E4B234043F4C0
:101DBC00806320F822300A7800EB820446E7640442
:101DCC0000EB82030BD530F822301D4045F4404522
:101DDC0045F0800520F822500B7800EB83031A881D
:101DEC0052060BD540F60F721C88224042F400427A
:101DFC0042F0C0021A800B7800EB830340F60F729E
:101E0C0048F280041D882A4042F4404242F080028D
:101E1C001A800A78344B30F822502B40234320F898
:101E2C0022300A78314B30F822100B401C4320F83A
:101E3C002240002070BC7047B0F85050B0F85040B1
:101E4C002B44043346F813200A690D78A31D3E2A4F
:101E5C0003EBC5032BD8C2F34F04D50744BF0134A1
:101E6C00A4B2A402A4B246F813400B7830F8234075
:101E7C0000EB830264040DD540F60F7230F823405A
:101E8C00224042F4404242F0800220F823200A789B
:101E9C0000EB82021188154B002070BC0B4083F4C0
:101EAC00405343F4004343F0800313807047C2F364
:101EBC004F14D20604BF04F1FF3294B20C4A42EA2A
:101ECC00842292B246F81320CFE740F60F721C889A
:101EDC00224042F4004242F0C0021A800B7800EB20
:101EEC0083032AE78F89FFFFBF8FFFFF8FBFFFFFA1
:101EFC000080FFFF30B40A788D7A00EB82034C78B7
:101F0C006DBB7CB130F82240640600F1A88030BC77
:101F1C0019885A4A00200A4042F4004242F08002DA
:101F2C001A80704730F8224065040DD540F60F73C7
:101F3C0030F82240234043F4404343F0800320F820
:101F4C0022300B7800EB830319884D4A002030BCFB
:101F5C000A4042F4004242F080021A807047002C82
:101F6C003ED130F8224064040DD540F60F7330F8A2
:101F7C002240234043F4404343F0800320F82230B6
:101F8C000B7800EB83031A8855060BD540F60F72BD
:101F9C001C88224042F4004242F0C0021A800B78A6
:101FAC0000EB830340F60F7248F280041D882A4030
:101FBC0042F4004242F0C0021A800A78304B30F8EA
:101FCC0022502B40234320F822300A782B4B30F838
:101FDC0022100B401C4320F82240002030BC7047DC
:101FEC0030F8224064040DD540F60F7330F82240CF
:101FFC00234043F4404343F0800320F822300B7815
:10200C0000EB83031A8852060BD540F60F721C881E
:10201C00224042F4004242F0C0021A800B7800EBDE
:10202C00830340F60F7248F280041D882A4042F464
:10203C00404242F080021A800A78104B30F822504D
:10204C002B40234320F822300A780D4B30F8221015
:10205C000B401C4320F82240002030BC704740F657
:10206C000F7330F82240234043F4004343F0C00385
:10207C0020F822300B7800EB830348E7BF8FFFFF7B
:10208C008FBFFFFFF0B44C788E69012C0B6958D0D0
:10209C009E4292BF0022F21A1E468B7A8A610A78FF
:1020AC003BBBB0F850303E2E03F1060300F58064C4
:1020BC0003EBC20240F2A180C6F34F15F60604BF33
:1020CC0005F1FF339DB2694B43EA85239BB244F87B
:1020DC0012300A7830F82210654BF0BC0B4083F4B8
:1020EC00405343F4004343F0800320F82230002097
:1020FC007047002CEED1B0F850303E2E03F10203A5
:10210C0000F5806403EBC20240F29480C6F34F15D5
:10211C00F70604BF05F1FF339DB2544B43EA852308
:10212C009BB244F812304D78002D40F09180B0F8FD
:10213C0050200D78063202EBC50244F812300A78B2
:10214C00C8E79E4286BFF21A1E460022B3B28C7AB2
:10215C0001338A615B104F6900F58062ACB98C88E1
:10216C0002EB44042BB137F8025B013B24F8045B0F
:10217C00F9D1B0F850300C78023303EBC40342F8B9
:10218C0013600A7800EB82022AE00C7830F82450B5
:10219C00B0F850C06D064FEAC4044CBF0D89CD8811
:1021AC006444023442F8146002EB45022BB137F858
:1021BC00024B013B22F8044BF9D10C784B7800EB25
:1021CC00840233BB40F60F7330F82420134043F4E1
:1021DC00004343F0C00320F824300A7800EB82025D
:1021EC001188244B0020F0BC0B4083F0300343F4E7
:1021FC00004343F0800313807047C6F34F03F50789
:10220C0044BF01339BB29B029BB244F812300A7854
:10221C0060E7012BE4D140F60F7330F82420134013
:10222C0043F4404343F0800320F824300A7800EB59
:10223C008202D5E7C6F34F03F50744BF01339BB2C7
:10224C009B029BB244F812304D78002D3FF46FAFD7
:10225C00012D0A787FF43EAFB0F85030023303EB17
:10226C00C20244F812600A7834E700BF0080FFFF16
:10227C008FBFFFFFBF8FFFFF0B786BB90288144B2A
:10228C00134083F4805383F0100343F4004343F072
:10229C0080030380002070474A7830F823105AB12D
:1022AC000C4A0A4082F0100242F4004242F08002D2
:1022BC0020F8232000207047074A0A4082F48052FD
:1022CC0042F4004242F0800220F8232000207047A4
:1022DC00BFBFFFFFBF8FFFFF8FBFFFFF10B40B7897
:1022EC004C7800EB8302FCB130F8234064060CD42C
:1022FC0011881D4B00200B4083F0300343F4004346
:10230C0043F08003138010BC704740F60F7230F816
:10231C002340224042F4004242F0C00220F8232025
:10232C000A7800EB8202E3E730F8234064040DD511
:10233C0040F60F7230F82340224042F4404242F003
:10234C00800220F823200A7800EB82021188074BC8
:10235C0000200B4083F4405343F4004343F08003CC
:10236C00138010BC704700BFBF8FFFFF8FBFFFFFF4
:10237C0011B98023A0F84C30002070470020704722
:10238C0000207047B0F84400704700BF0020704731
:10239C00013300F580605B1000EB420205D031F890
:1023AC00020B013B22F8040BF9D17047013300F505
:1023BC0080605B1000EB420205D052F8040B013B2D
:1023CC0021F8020BF9D17047D0F818321BB100205C
:1023DC00C3F8140270470220704700BFD0F81C32BB
:1023EC0083B110B5D0F8184294F80002FF2807D03A
:1023FC009B6894F8012221469847FF2384F8003209
:10240C00002010BD00207047432303800048704714
:10241C0040000020432303800048704784000020C4
:10242C004323038000487047D40000200A23038014
:10243C0000487047C800002038B50446D0F8185240
:10244C0001F0C2F8D4F81832C5F80C024BB1D4F82C
:10245C001C3205F50371DB68D5F80402984700209F
:10246C0038BD022038BD00BFF8B50B780C4613F010
:10247C00600216D0202A12D1CA8805464E78C2B105
:10248C001B06D0F818721BD5D0F81C3239463046D2
:10249C009B689847E2883946284600F001FC0020EA
:1024AC00F8BD4B780A2BFAD10122094900F0F8FB50
:1024BC00F5E7D0F81C3230469B6898470020F8BDF1
:1024CC0087F8006287F80122394600F0FFFBE6E747
:1024DC00E801002010B50446812101F011F801211A
:1024EC00204601F00DF82046822101F009F8D4F8BD
:1024FC00183253B1D4F81C325B689847D4F81802E0
:10250C0001F06CF80023C4F81832002010BD00BF95
:10251C00F8B5037C0446ABBB4FF400730222812157
:10252C0000F0DEFF4FF4007302220121204600F080
:10253C00D7FF082303228221204600F0D1FF4FF45D
:10254C00077001F047F80546C4F8180230B30026AE
:10255C00D4F81C321B689847277CD5F80422C5F8A0
:10256C0014622046C5F8186237B94FF40073012184
:10257C0001F01CF83846F8BD4023012101F016F893
:10258C003046F8BD40230222812100F0A9FF4023F0
:10259C0002220121204600F0A3FFCAE70120F8BD6A
:1025AC0019B1C0F81C12002070470220704700BF00
:1025BC00D0F818320020C3F80812C3F81022704764
:1025CC00D0F818320020C3F804127047D0F8182243
:1025DC008AB110B5D2F814420CB1012010BD012102
:1025EC00B2F81032C2F81412D2F80822812100F08D
:1025FC00CFFF204610BD0220704700BFD0F8182234
:10260C008AB110B5047CD2F8042234B94FF40073AB
:10261C00012100F0CBFF204610BD4023012100F02A
:10262C00C5FF002010BD0220704700BF88B108B55F
:10263C00D0F8143213B10023C0F8143209B1C0F829
:10264C0010120123027080F8FC3100F0EDFE002026
:10265C0008BD0220704700BF19B1C0F81412002049
:10266C0070470220704700BF08B500F02BFF002018
:10267C0008BD00BF08B5D0F814321BB11B689847D1
:10268C0000B908BD022008BD08B5D0F814325B684B
:10269C009847002008BD00BF38B5044600F5027508
:1026AC00284600F0C1FA012094F80812B4F80E2262
:1026BC0001F01F038342C4E97D0209D0A3B1022BB0
:1026CC000CD001F08001204600F028FF002038BD1E
:1026DC002946204600F020FA002038BD2946204625
:1026EC0000F038FA002038BD2946204600F0CAF820
:1026FC00002038BD10B5044631B91346D0F8F4218A
:10270C00032A0DD0002010BDD0F814329B69002B89
:10271C00F8D090F8FC21032AF4D19847002010BD82
:10272C00D0E9431291420DD8D0F814321B6923B171
:10273C0090F8FC21032A00D19847204600F0DCFADF
:10274C00002010BD891A8A4228BF0A46C0F80C1115
:10275C0092B2194600F0C8FAD4E700BF70B504462F
:10276C0069B91346D0F8F421022A14D094F8003237
:10277C00012B02D1002384F80032002070BDD0F868
:10278C0014325B69002BF8D090F8FC21032AF4D1A9
:10279C009847002070BDD0E9076296421DD8836926
:1027AC00B3FBF2F502FB15355DB99A4209D8D0F8A6
:1027BC00F821934205D22A4600F080FAC4F8F85169
:1027CC0012E0D4F81432DB681BB194F8FC21032A14
:1027DC0011D0204600F09CFAC8E7B21A0D46C2612F
:1027EC00194692B200F06AFA2B462A462946204630
:1027FC0000F0DCFEBAE720469847EAE738B500223D
:10280C004025044611462B4600F06AFE2B4600225A
:10281C00C4F810512046802100F062FE0122D4F849
:10282C001832256284F8FC212BB1D4F814322179AA
:10283C005B6820469847002038BD00BF017400201B
:10284C00704700BF0346042290F8FC11002083F867
:10285C00FD1183F8FC217047034690F8FD21002000
:10286C0083F8FC21704700BF90F8FC21032A01D0AB
:10287C000020704708B5D0F81432DB6903B19847D3
:10288C00002008BD30B54B7883B00D460446092BAB
:10289C000BD8DFE803F035480A580A05650A7B15A2
:1028AC008B8813B9CB88002B7DD08021204600F07B
:1028BC0035FE2046002100F031FE002003B030BD73
:1028CC008978944D01292970EFD890F8FC31022BAE
:1028DC0000F08080032BE8D1002900F011814168C1
:1028EC00012909D0C9B2FFF7CFFE297820466160D3
:1028FC00FFF7C0FE0228D8D0204600F0FDF9DCE737
:10290C0090F8FC31023B012BCFD80122D0F80432D5
:10291C00C2600BB10323C360022204F10C012046F8
:10292C0000F0BEF9C9E790F8FC31023B012BBCD892
:10293C004B88012BC1D10022D0F81432C0F80422EC
:10294C009B689847D8E74B88012BB6D1D0F8142256
:10295C00C0F8043293689847204600F0CDF9ACE7F4
:10296C004A88130A013B062B9FD801A151F823F08A
:10297C00492A00080B2A0008F9290008B728000882
:10298C00B7280008732A0008592A0008CA88012AA7
:10299C008BD190F8FC31022B70D0032B85D1011D0B
:1029AC0000F07EF989E790F8FC31032B3FF47DAF02
:1029BC008D7805F07F0580F8FE51294600F0DAFD90
:1029CC00204600F099F9002D00F08F80022384F846
:1029DC00FC3172E700298FD001210323416080F87C
:1029EC00FC31FFF747FE022886D15EE7D2B2052AFA
:1029FC003FF65BAFDFE802F0716961595149027C27
:102A0C00D0F81432002A74D19B6A0DF10600984755
:102A1C0002234370BDF80630002B3FF44EAFEA881A
:102A2C00002A3FF44AAF934228BF134601461A4688
:102A3C002046ADF8063000F033F93EE7D0F81032FE
:102A4C000DF106011B68007C9847E3E7037C002B23
:102A5C007FF42BAFD0F814320DF106001B6B9847A6
:102A6C0007234370D6E7037C002B7FF41EAFD0F80E
:102A7C0014320DF106005B6B9847CBE7002301463F
:102A8C0041F8083F00F00CF917E7D0F810320DF1BF
:102A9C0006019B69007C9847BCE7D0F810320DF119
:102AAC0006015B69007C9847B4E7D0F810320DF151
:102ABC0006011B69007C9847ACE7D0F810320DF189
:102ACC000601DB68007C9847A4E7D0F810320DF1C2
:102ADC0006019B68007C98479CE7D0F810320DF1FA
:102AEC0006015B68007C984794E7012384F8FC316D
:102AFC00E3E6DB6A0DF1060098470223437089E791
:102B0C000223416080F8FC31FFF7BEFD204600F047
:102B1C00F3F8D2E6E901002038B590F8FC31044610
:102B2C00032B0DD10B790D46012B09D8D0F814329B
:102B3C009B689847EB885BB9204600F0DDF807E00E
:102B4C008021204600F0EAFC2046002100F0E6FC43
:102B5C00002038BD70B50B788A8803F06003202BF9
:102B6C00054620D04B780C46012BD6B231D0002B29
:102B7C003ED0032B15D190F8FC31022B23D0032B24
:102B8C0017D14B8823B9730602D0314600F0C6FC2E
:102B9C00D5F8143221469B6828469847284600F001
:102BAC00ABF8002070BDD0F814329B689847002019
:102BBC0070BD8021284600F0B1FC2846002100F0B1
:102BCC00ADFC002070BD7206EBD0314600F0A6FCC7
:102BDC00E7E790F8FC31022BF5D0032BE9D14B88B9
:102BEC00002BDED17106D9D0314600F0A5FCCFE721
:102BFC0090F8FC31022BE6D0032BDAD106F07F04DF
:102C0C0000EB0414130631464CBF143404F58274E3
:102C1C0000F0A0FC003018BF0120214620600222E9
:102C2C00284600F03DF8BCE70B7803704B784370F6
:102C3C00CA788B7803EB022343804A790B7903EB38
:102C4C0002238380CA798B7903EB0223C3807047FC
:102C5C0010B3037870B403B30446C0F10106A31992
:102C6C0014F8015FDBB2002DF9D101335B00DCB24B
:102C7C00032513800C704D7004785CB10223002581
:102C8C005A1CD2B2CC548D5410F8014F0233DBB223
:102C9C00002CF5D170BC7047704702242346E7E73F
:102CAC0038B5134602250A46C0E90633C0F8F4517C
:102CBC00002100F06DFC002038BD00BF08B51346A4
:102CCC000A46002100F064FC002008BD38B513460C
:102CDC0003250A46C0E94233C0F8F451002100F044
:102CEC0065FC002038BD00BF08B513460A4600211C
:102CFC0000F05CFC002008BD08B504220023C0F8DD
:102D0C00F42119461A4600F043FC002008BD00BF10
:102D1C0008B505220023C0F8F42119461A4600F024
:102D2C0045FC002008BD00BFF0B5022101264FF480
:102D3C008037002501244FF480324FF4801395B076
:102D4C000AA8CDE90A670C950E94CDE911121393DC
:102D5C00FEF790F900B1FEE70F26022700224FF490
:102D6C0080630890214604A8CDE90467CDE90623C9
:102D7C00FEF768FB00B1FEE710224FF480036846B3
:102D8C0000920393FEF75CFC044600B1FEE7FEF7ED
:102D9C0031FC084BA3FB00308009FDF787FA0420B7
:102DAC00FDF79CFA224621464FF0FF30FDF73CFA26
:102DBC0015B0F0BDD34D621010B51B4C012220464E
:102DCC002021FDF7DBFB204601224021FDF7D6FB3D
:102DDC00204601228021FDF7D1FBC820FDF700FA27
:102DEC00204600222021FDF7C9FB2046002240216D
:102DFC00FDF7C4FB204600228021FDF7BFFBC82055
:102E0C00FDF7EEF9204601222021FDF7B7FB204605
:102E1C0001224021FDF7B2FB2046BDE81040012203
:102E2C008021FDF7ABBB00BF000C014080B588B022
:102E3C00FDF7B2F9FFF778FF00226F4B102198696C
:102E4C00002640F0200098619C696C4804F0200436
:102E5C000194019C9C69022744F004049C619C69C8
:102E6C004FF4807804F004040294029C9D6914468B
:102E7C0045F008059D619B694FF0000903F00803BC
:102E8C000393039BFDF77AFB0122E0215C48FDF7DD
:102E9C0075FB1022012304A95848CDE90423CDE980
:102EAC000667FDF777FA0122564B04A95448CDE981
:102EBC0004230694FDF76EFA04A950480694CDE954
:102ECC000489FDF767FAE022012304A94C48CDE9F7
:102EDC000423CDE90667FDF75DFA022304A94848EF
:102EEC000693CDE90489FDF755FA224621460620C2
:102EFC00FDF79AF90620FDF7CDF94FF482764FF4E1
:102F0C00007510210A22404B404F1846C3E9024479
:102F1C00C3E90444C3E908449C62C3E90076C3E9ED
:102F2C000651DA62FEF712FC98B902464FF4E1350D
:102F3C000C24374B37491846C3E90152C3E9032225
:102F4C00C3E9062219605C61FEF7F6FC024608B183
:102F5C00FEE7FEE7304B31491846C3E90152C3E99D
:102F6C000322C3E90542DA611960FEF7E5FC00288B
:102F7C003BD100F0A5F9FFF71FFF2948FDF7E0F85A
:102F8C0081B2274800F0DEF9264C274F274D1C4E06
:102F9C0017E0024640213046FDF7F0FA23884FF443
:102FAC008071013330462380FDF7E2FAF0B1002343
:102FBC0020211A4630462380FDF7E0FA0120FDF768
:102FCC000FF939462288284600F0A8FB2846FDF761
:102FDC00B7F881B2284600F0B5F90028D9D0012203
:102FEC0040213046FDF7CAFAD8E7FEE7012220213E
:102FFC003046FDF7C3FAE1E700100240000801403B
:10300C00000C014000001110EC01002000300140C8
:10301C004402002000380140840200200048004097
:10302C00C8020020C4020020BC3F0008E0020020BF
:10303C00FEE700BF294B00B59A6983B042F001024C
:10304C009A619A69032002F001020092009ADA69EF
:10305C0042F08052DA61DB6903F080530193019BEB
:10306C00FDF7D0F800226FF00B001146FDF7DCF8ED
:10307C0000226FF00A001146FDF7D6F800226FF01F
:10308C0009001146FDF7D0F800226FF0040011463C
:10309C00FDF7CAF800226FF003001146FDF7C4F8E3
:1030AC0000226FF001001146FDF7BEF800224FF030
:1030BC00FF301146FDF7B8F8002205201146FDF748
:1030CC00B3F80520FDF7E6F8054A536823F0E063F2
:1030DC0043F00073536003B05DF804FB0010024032
:1030EC00000001400268134B9A4200D07047A021A7
:1030FC0030B50225032403F560439A6987B042F486
:10310C0080529A619B690C4803F48053029101939D
:10311C0002A9019B039505940025FDF73BF940247A
:10312C00002302A90448CDE902450493FDF732F9C6
:10313C0007B030BD003001400008014030B50368D5
:10314C002E4A87B0934204D02D4A93422BD007B01D
:10315C0030BD4FF40071022503242A4B2A489A698A
:10316C0042F480429A619B69029103F4804300937C
:10317C0002A9009B059403950024FDF70BF900238D
:10318C004FF4806202A92048CDE902230494FDF794
:10319C0001F9224621462520FDF746F82520FDF7AA
:1031AC0079F807B030BD4FF4806102250324154B2C
:1031BC001648DA6942F48022DA61DB69029103F481
:1031CC008023019302A9019B059403950024FDF72C
:1031DC00E1F800234FF4006202A90C48CDE9022368
:1031EC000494FDF7D7F8224621462720FDF71CF85A
:1031FC002720FDF74FF807B030BD00BF0038014065
:10320C00004800400010024000080140000C014042
:10321C00704700BFFEE700BFFEE700BFFEE700BF40
:10322C00FEE700BF704700BF704700BF704700BF8C
:10323C0008B5FCF7C3FFBDE80840FDF75DB800BF5B
:10324C00704700BF0120FDF79FB900BF0148FDF793
:10325C0049BB00BFA00500200148FEF7DBBB00BF47
:10326C00440200200148FEF7D5BB00BF84020020B9
:10327C0030B44FF41F054FF000640E4B0E4A196822
:10328C000E4841F00101196059680A405A601A68E9
:10329C0022F0847222F480321A601A6822F480229E
:1032AC001A605A6822F4FE025A609D60846030BC39
:1032BC00704700BF001002400000FFF800ED00E076
:1032CC0010B5094C002220460849FFF7AFF92046FB
:1032DC000749FFF7C1F920460649FFF761F9204677
:1032EC00BDE81040FFF7C0B9F80200202C01002007
:1032FC00080000201C0100200020704700207047AF
:10330C0010B5054C01462046FFF75AF92046FFF749
:10331C0075F9002010BD00BFF802002010B5064C56
:10332C00002220460549FFF743F920460449FFF7E0
:10333C0047F9002010BD00BFF80200205C050020FA
:10334C001C05002010B5094CD4F81832D3F81432EF
:10335C000BB1012010BD0A4601462046FFF728F9A3
:10336C002046BDE81040FFF731B900BFF80200203D
:10337C0002680E4B9A4200D07047002203F5DA33F4
:10338C0010B5DC6982B044F40004DC61DB691146E1
:10339C0003F4000301931420019BFCF745FF142058
:1033AC0002B0BDE81040FCF775BF00BF005C0040E8
:1033BC0000F22C41D0F85C04FFF76EB900EB41131E
:1033CC00D3F83C22D0F85C04FFF794B900EB41131E
:1033DC00DA6BD0F85C04FFF7C1B900BFD0F85C041D
:1033EC00FFF742BA10B504460121D0F85C04FFF790
:1033FC0025FAD4F85C04BDE81040FFF7FFB900BF14
:10340C0010B50446D0F85C04FFF71CFAA36923B18D
:10341C00024A136943F00603136110BD00ED00E08E
:10342C00D0F85C04FFF718BAF8B50321044600265F
:10343C0002200027082500221F4BDFF884C0C3F8A8
:10344C005C44C3E90201C4F820321846C3E906679C
:10345C00C3E900C51A62FDF7A3F830BB002218239C
:10346C001146D4F82002FDF7EBFD582300228021F1
:10347C00D4F82002FDF7E4FDC02300228121D4F80A
:10348C002002FDF7DDFD4FF4887300220121D4F8F2
:10349C002002FDF7D5FDD4F820024FF480730022F2
:1034AC008221FDF7CDFD0020F8BD4FF49771034844
:1034BC00FFF7BEFDD2E700BFA0050020EC3F0008DF
:1034CC00005C004008B5D0F82002FDF7F3F90328A2
:1034DC0096BF024B0220185C08BD00BFE83F0008F5
:1034EC0010B51C46D0F8200213462246FDF7E0FC2E
:1034FC00032896BF014B0220185C10BDE83F000862
:10350C0008B5D0F82002FDF7F7FC032896BF024B54
:10351C000220185C08BD00BFE83F000808B5D0F8D1
:10352C002002FDF73FFD032896BF024B0220185CDA
:10353C0008BD00BFE83F000808B5D0F82002FDF731
:10354C005BFD032896BF024B0220185C08BD00BF30
:10355C00E83F00080A06D0F8203204D403EB4113EC
:10356C0093F82A02704701F07F0103EB411393F8A3
:10357C002A00704708B5D0F82002FDF785FC032817
:10358C0096BF024B0220185C08BD00BFE83F000844
:10359C0008B5D0F82002FDF7EFFC032896BF024BCC
:1035AC000220185C08BD00BFE83F000808B5D0F841
:1035BC002002FDF7C3FC032896BF024B0220185CC7
:1035CC0008BD00BFE83F000808B5D0F82002FDF7A1
:1035DC00CBFC08BD00487047000A0020704700BFB4
:1035EC00704700BF122301480B8070474801002030
:1035FC00042301480B8070475C01002010B5044C7B
:10360C000A4604482146FFF723FB204610BD00BFA5
:10361C00200C00203840000810B5044C0A46044821
:10362C002146FFF715FB204610BD00BF200C0020E3
:10363C004C40000810B5044C0A4604482146FFF7DC
:10364C0007FB204610BD00BF200C00206440000882
:10365C0010B5044C0A4604482146FFF7F9FA2046F7
:10366C0010BD00BF200C00201C40000810B5044CFD
:10367C000A4604482146FFF7EBFA204610BD00BF6E
:10368C00200C002028400008002103E00B4B5B5865
:10369C00435004310A480B4B42189A42F6D30A4A5B
:1036AC0002E0002342F8043B084B9A42F9D3FFF79F
:1036BC00DFFD00F00FF8FFF7B9FB7047B0400008D2
:1036CC0000000020C4010020C80100203C0E002096
:1036DC00FEE7000070B500260C4D0D4C641BA410C9
:1036EC00A64209D100F050FC00260A4D0A4C641B7E
:1036FC00A410A64205D170BD55F8043B984701367D
:10370C00EEE755F8043B98470136F2E7A84000086D
:10371C00A8400008A8400008AC4000080EB46FF0A8
:10372C00004100B59CB01DAB02900690079104912E
:10373C000848094953F8042B0591006802A9019324
:10374C0000F068F80022029B1A701CB05DF804EBC4
:10375C0003B07047600100200802FFFF2DE9F0471D
:10376C008E6882469E420C469146984638D8B1F8EF
:10377C000CC01CF4906F31D062692568096902EBAA
:10378C0042026F1A02EBD272013355103B449D4238
:10379C0038BF1D461CF4806F30D0294600F040FB2A
:1037AC00064650B90C234FF0FF30CAF80030A389FD
:1037BC0043F04003A381BDE8F0873A46216900F04D
:1037CC00BBFAA38923F4906343F08003A3812661A1
:1037DC003E44266046466561ED1BA560464500D912
:1037EC00464632464946206800F0B4FAA3680020E9
:1037FC009B1BA36023681E442660DCE72A4600F06E
:10380C0069FB06460028E2D12169504600F0BCFA5B
:10381C00C8E700002DE9F04F1E468B899DB01B06B2
:10382C0007460D4614460ED50B6963B9402100F0CE
:10383C00F7FA2860286120B90C233B604FF0FF3069
:10384C00C9E040236B610023099320238DF82930B4
:10385C0030234FF0010ADFF898918DF82A30039647
:10386C0023461E4613F8012B0AB1252AF9D1B6EBD3
:10387C00040B0BD05B46224629463846FFF76EFFF9
:10388C00013000F0A380099B5B4409933378002B33
:10389C0000F09C8000234FF0FF32CDE90523013668
:1038AC00049307938DF853301A933446052214F879
:1038BC00011B4F4800F032FA049BC0B9D90644BF33
:1038CC0020228DF853201A0744BF2B228DF8532049
:1038DC0032782A2A13D0344600200A26079A214629
:1038EC0011F8013B303B092B4BD970B914E0A0EB1C
:1038FC0009000AFA00F0184304902646D5E7039A0B
:10390C00111D12680391002A01DB079204E0524258
:10391C0043F002030792049323782E2B0CD1637887
:10392C002A2B33D1039B02341A1D1B680392002BE4
:10393C00B8BF4FF0FF3305932E4E0322217830464B
:10394C0000F0ECF938B14023801B03FA00F0049B23
:10395C0001340343049314F8011B062226488DF806
:10396C00281000F0DBF9002838D0244B13BB039B44
:10397C00073323F0070308330393099B434409934C
:10398C006EE706FB023201200C46A8E700230A264C
:10399C00194601340593204610F8012B303A092AB8
:1039AC0003D9002BC8D00591C6E706FB01210123E2
:1039BC000446F0E703AB00932A46114B04A93846A2
:1039CC00AFF30080B0F1FF3F8046D6D1AB895B06E8
:1039DC003FF534AF09981DB0BDE8F08F03AB0093F1
:1039EC002A46074B04A9384600F082F8EAE700BFE4
:1039FC00744000087A4000087E4000080000000077
:103A0C00693700082DE9F04791461F468A680B6913
:103A1C0006469342B8BF1346C9F8003091F84320CC
:103A2C000C46DDF8208012B10133C9F80030236850
:103A3C00990642BFD9F800300233C9F80030256826
:103A4C0015F0060507D104F1190AE368D9F800202E
:103A5C009B1AAB4229DC94F843302268003318BF20
:103A6C00012392062ED404F1430239463046C04756
:103A7C00013021D02368E56803F00603042B18BF3E
:103A8C000025D9F800204FF0000908BFAD1AA36833
:103A9C00226908BF25EAE5759342C4BF9B1AED184D
:103AAC001A344D451AD1002008E0012352463946FC
:103ABC003046C047013003D14FF0FF30BDE8F087EE
:103ACC000135C2E73020E11881F843005A1C94F804
:103ADC0045102244023382F84310C4E701232246E6
:103AEC0039463046C0470130E6D009F10109D8E724
:103AFC002DE9F04306460C4601F14300097E85B0E2
:103B0C006E29984617460C9B00F0BB8024D863297D
:103B1C0039D00AD8002900F0C480582900F09280CE
:103B2C0004F1420584F8421035E0642901D069297A
:103B3C00F6D125681A6815F0800F02F104012CD01B
:103B4C0012681960002A03DA2D23524284F843309C
:103B5C00DFF8C0C10A233FE0732900F0A68008D823
:103B6C006F2921D07029DBD1226842F0200222601B
:103B7C0003E0752918D07829D2D17822DFF898C1C2
:103B8C0084F8452062E01A6804F14205111D1960A1
:103B9C00136884F84230012394E0126815F0400F4A
:103BAC00196018BF12B2CDE7D4F800C01A681CF027
:103BBC00800F02F104051D6001D0126803E01CF0B7
:103BCC00400FFAD012886F290CBF08230A23DFF8A4
:103BDC0044C1002184F843106568002DA8BF2168FA
:103BEC00A560A4BF21F0040121600AB9002D46D0C4
:103BFC000546B2FBF3F103FB112E1CF80EE09342C9
:103C0C0005F801ED39D9082B0BD12368DA0708D553
:103C1C00236962689A42DEBF302305F8013C05F146
:103C2C00FF35401B2061CDF800803B4603AA21469E
:103C3C003046FFF7E7FE013049D14FF0FF3005B0B9
:103C4C00BDE8F083DFF8CCC084F845101D6821680E
:103C5C0055F8042B1D600D060BD5CD0744BF41F064
:103C6C00200121601AB9236823F02003236010235C
:103C7C00AFE74B0648BF92B2EFE70A46B9E70546F5
:103C8C00C1E71A68D4F800C0151D61691CF0800FDB
:103C9C001D60136801D0196003E01CF0400FFAD0CE
:103CAC001980002305462361BDE71A68111D1960B0
:103CBC00156800216268284600F030F808B1401BF6
:103CCC00606063682361002384F84330ABE72369A9
:103CDC002A4639463046C0470130AED023689B0790
:103CEC0013D4E068039B9842B8BF1846A7E701239A
:103CFC004A4639463046C04701309ED00135E3680C
:103D0C00039A9B1AAB42F2DCEBE7002504F119098C
:103D1C00F5E700BF854000089640000810B5C9B211
:103D2C0002449042034601D1002303E01C78013089
:103D3C008C42F6D1184610BD0A44914200F1FF3373
:103D4C0000D1704710B511F8014B914203F8014FA7
:103D5C00F9D110BD884210B501EB020302D98342A0
:103D6C001C4607D8421E994208D011F8014B02F8A4
:103D7C00014FF8E783189A1A9A4200D110BD14F833
:103D8C00011D03F8011DF7E738B50546002943D09E
:103D9C0051F8043C0C1F002BB8BFE41800F0D0F80D
:103DAC001E4A1368104633B9636014602846BDE898
:103DBC00384000F0CBB8A3420BD92168621893426B
:103DCC0001BF1A685B685218226063600460EDE7FB
:103DDC0013465A680AB1A242FAD919685818A04277
:103DEC000BD120680144581882421960DED110684A
:103DFC005268014419605A60D8E702D90C232B6031
:103E0C00D4E7206821188A4201BF1168526809184A
:103E1C00216062605C60C9E738BD00BF200E0020E5
:103E2C00F8B5CD1C25F0030508350C2D38BF0C2535
:103E3C00002D064601DBA94203D90C233360002078
:103E4C00F8BD00F07DF821490A6814469CB9204F52
:103E5C003B6823B92146304600F062F838602946A9
:103E6C00304600F05DF8431C23D10C233046336000
:103E7C0000F06CF8E3E723685B1B17D40B2B03D91A
:103E8C0023601C44256004E06368A2420CBF0B60F5
:103E9C005360304600F05AF804F10B00231D20F05B
:103EAC000700C21ACCD01B1AA350C9E7224664687B
:103EBC00CCE7C41C24F00304A042E3D0211A304602
:103ECC0000F02EF80130DDD1CFE700BF200E00202E
:103EDC00240E0020F8B5074614460E4621B91146AB
:103EEC00BDE8F840FFF79CBF22B9FFF74DFF254610
:103EFC002846F8BD00F030F8A0420FD221463846D3
:103F0C00FFF78EFF05460028F2D031462246FFF718
:103F1C0013FF31463846FFF737FFE9E73546E7E749
:103F2C0038B50023054C05460846236000F01EF802
:103F3C00431C02D1236803B12B6038BD2C0E00202A
:103F4C00014800F011B800BF340E0020014800F009
:103F5C000CB800BF340E002051F8043C181F002B85
:103F6C00BCBF0B58C018704770477047044A0549CE
:103F7C001368002B08BF0B46184410601846704796
:103F8C00280E0020400E0020F8B500BFF8BC08BC7D
:103F9C009E467047F8B500BFF8BC08BC9E467047FB
:103FAC0002030405060708090A0B0C0D0E0F10106E
:103FBC00555342205472616E736D69742025640DE3
:103FCC000A000000000000000000000001020304D1
:103FDC0006070809000000000102030400020102A8
:103FEC002F55736572732F766974616C69792F44E0
:103FFC0065736B746F702F4F706C696E6B2F53728F
:10400C00632F757362645F636F6E662E63000000CE
:10401C0043444320436F6E6669670000434443206A
:10402C00496E7465726661636500000053544D6996
:10403C0063726F656C656374726F6E696373000095
:10404C0053544D3332205669727475616C20436F32
:10405C006D506F72740000003030303030303030C2
:10406C003030314100000000232D302B2000686CD3
:10407C004C0065666745464700303132333435367F
:10408C0037383941424344454600303132333435B8
:0C409C00363738396162636465660000E5
:0440A80031010008DA
:0440AC000D010008FA
:1040B00001000000100000001D250008E124000898
:1040C0007524000800000000E9230008D52300083B
:1040D000452400080000000000000000000000006F
:1040E00021240008152400082D2400083924000884
:1040F00009024300020100C032090400000102026B
:10410000010005240010010524010001042402021D
:1041100005240600010705820308001009040100B8
:10412000020A0000000705010240000007058102A5
:104130004000000009024300020100C032090400EF
:104140000001020201000524001001052401000104
:10415000042402020524060001070582030800105A
:1041600009040100020A0000000705010200020024
:1041700007058102000200000A060002000000405C
:104180000100000009074300020104C032090400D5
:1041900000010202010005240010010524010001B4
:1041A000042402020524060001070582030800FF1B
:1041B00009040100020A0000000705010240000096
:1041C000070581024000000000A24A0429330008CC
:1041D00005330008093300080D330008F1350008E5
:1041E000FD3500080936000825360008413600086C
:1041F0005D36000879360008120100020202004014
:104200008304405700020102030100000403090473
:104210006401002000000000000000000000000019
:10422000000000000000000000000000000000008E
:10423000000000000000000000000000000000007E
:10424000000000000000000000000000000000006E
:10425000000000000000000000000000000000005E
:10426000000000000000000000000000000000004E
:04427000000000004A
:040000050800369524
:00000001FF
